{"abi":[{"inputs":[{"internalType":"string","name":"newMessage","type":"string"}],"name":"addMessage","outputs":[],"stateMutability":"nonpayable","type":"function"},{"inputs":[{"internalType":"uint256","name":"index","type":"uint256"}],"name":"deleteMessage","outputs":[],"stateMutability":"nonpayable","type":"function"},{"inputs":[{"internalType":"uint256","name":"index","type":"uint256"},{"internalType":"string","name":"newMessage","type":"string"}],"name":"editMessage","outputs":[],"stateMutability":"nonpayable","type":"function"},{"inputs":[],"name":"getMessages","outputs":[{"components":[{"internalType":"string","name":"information","type":"string"},{"internalType":"address","name":"author","type":"address"}],"internalType":"struct BulletinBoard.Message[]","name":"","type":"tuple[]"}],"stateMutability":"view","type":"function"},{"inputs":[{"internalType":"uint256","name":"","type":"uint256"}],"name":"messages","outputs":[{"internalType":"string","name":"information","type":"string"},{"internalType":"address","name":"author","type":"address"}],"stateMutability":"view","type":"function"}],"devdoc":{"kind":"dev","methods":{},"version":1},"evm":{"assembly":"    /* \"BulletinBoard.sol\":58:798  contract BulletinBoard {... */\n  mstore(0x40, 0x80)\n  callvalue\n  dup1\n  iszero\n  tag_1\n  jumpi\n  0x00\n  dup1\n  revert\ntag_1:\n  pop\n  dataSize(sub_0)\n  dup1\n  dataOffset(sub_0)\n  0x00\n  codecopy\n  0x00\n  return\nstop\n\nsub_0: assembly {\n        /* \"BulletinBoard.sol\":58:798  contract BulletinBoard {... */\n      mstore(0x40, 0x80)\n      callvalue\n      dup1\n      iszero\n      tag_1\n      jumpi\n      0x00\n      dup1\n      revert\n    tag_1:\n      pop\n      jumpi(tag_2, lt(calldatasize, 0x04))\n      shr(0xe0, calldataload(0x00))\n      dup1\n      0x0d80fefd\n      eq\n      tag_3\n      jumpi\n      dup1\n      0x5ff6cbf3\n      eq\n      tag_4\n      jumpi\n      dup1\n      0x6a226a49\n      eq\n      tag_5\n      jumpi\n      dup1\n      0x87f9b00a\n      eq\n      tag_6\n      jumpi\n      dup1\n      0xb888690a\n      eq\n      tag_7\n      jumpi\n    tag_2:\n      0x00\n      dup1\n      revert\n        /* \"BulletinBoard.sol\":167:192  Message[] public messages */\n    tag_3:\n      tag_8\n      0x04\n      dup1\n      calldatasize\n      sub\n      dup2\n      add\n      swap1\n      tag_9\n      swap2\n      swap1\n      tag_10\n      jump\t// in\n    tag_9:\n      tag_11\n      jump\t// in\n    tag_8:\n      mload(0x40)\n      tag_12\n      swap3\n      swap2\n      swap1\n      tag_13\n      jump\t// in\n    tag_12:\n      mload(0x40)\n      dup1\n      swap2\n      sub\n      swap1\n      return\n        /* \"BulletinBoard.sol\":702:796  function getMessages() public view returns (Message[] memory) {... */\n    tag_4:\n      tag_14\n      tag_15\n      jump\t// in\n    tag_14:\n      mload(0x40)\n      tag_16\n      swap2\n      swap1\n      tag_17\n      jump\t// in\n    tag_16:\n      mload(0x40)\n      dup1\n      swap2\n      sub\n      swap1\n      return\n        /* \"BulletinBoard.sol\":199:315  function addMessage(string memory newMessage) public {... */\n    tag_5:\n      tag_18\n      0x04\n      dup1\n      calldatasize\n      sub\n      dup2\n      add\n      swap1\n      tag_19\n      swap2\n      swap1\n      tag_20\n      jump\t// in\n    tag_19:\n      tag_21\n      jump\t// in\n    tag_18:\n      stop\n        /* \"BulletinBoard.sol\":515:696  function editMessage(uint256 index, string memory newMessage) public {... */\n    tag_6:\n      tag_22\n      0x04\n      dup1\n      calldatasize\n      sub\n      dup2\n      add\n      swap1\n      tag_23\n      swap2\n      swap1\n      tag_24\n      jump\t// in\n    tag_23:\n      tag_25\n      jump\t// in\n    tag_22:\n      stop\n        /* \"BulletinBoard.sol\":321:509  function deleteMessage(uint256 index) public {... */\n    tag_7:\n      tag_26\n      0x04\n      dup1\n      calldatasize\n      sub\n      dup2\n      add\n      swap1\n      tag_27\n      swap2\n      swap1\n      tag_10\n      jump\t// in\n    tag_27:\n      tag_28\n      jump\t// in\n    tag_26:\n      stop\n        /* \"BulletinBoard.sol\":167:192  Message[] public messages */\n    tag_11:\n      0x00\n      dup2\n      dup2\n      sload\n      dup2\n      lt\n      tag_29\n      jumpi\n      0x00\n      dup1\n      revert\n    tag_29:\n      swap1\n      0x00\n      mstore\n      keccak256(0x00, 0x20)\n      swap1\n      0x02\n      mul\n      add\n      0x00\n      swap2\n      pop\n      swap1\n      pop\n      dup1\n      0x00\n      add\n      dup1\n      sload\n      tag_31\n      swap1\n      tag_32\n      jump\t// in\n    tag_31:\n      dup1\n      0x1f\n      add\n      0x20\n      dup1\n      swap2\n      div\n      mul\n      0x20\n      add\n      mload(0x40)\n      swap1\n      dup2\n      add\n      0x40\n      mstore\n      dup1\n      swap3\n      swap2\n      swap1\n      dup2\n      dup2\n      mstore\n      0x20\n      add\n      dup3\n      dup1\n      sload\n      tag_33\n      swap1\n      tag_32\n      jump\t// in\n    tag_33:\n      dup1\n      iszero\n      tag_34\n      jumpi\n      dup1\n      0x1f\n      lt\n      tag_35\n      jumpi\n      0x0100\n      dup1\n      dup4\n      sload\n      div\n      mul\n      dup4\n      mstore\n      swap2\n      0x20\n      add\n      swap2\n      jump(tag_34)\n    tag_35:\n      dup3\n      add\n      swap2\n      swap1\n      0x00\n      mstore\n      keccak256(0x00, 0x20)\n      swap1\n    tag_36:\n      dup2\n      sload\n      dup2\n      mstore\n      swap1\n      0x01\n      add\n      swap1\n      0x20\n      add\n      dup1\n      dup4\n      gt\n      tag_36\n      jumpi\n      dup3\n      swap1\n      sub\n      0x1f\n      and\n      dup3\n      add\n      swap2\n    tag_34:\n      pop\n      pop\n      pop\n      pop\n      pop\n      swap1\n      dup1\n      0x01\n      add\n      0x00\n      swap1\n      sload\n      swap1\n      0x0100\n      exp\n      swap1\n      div\n      0xffffffffffffffffffffffffffffffffffffffff\n      and\n      swap1\n      pop\n      dup3\n      jump\t// out\n        /* \"BulletinBoard.sol\":702:796  function getMessages() public view returns (Message[] memory) {... */\n    tag_15:\n        /* \"BulletinBoard.sol\":746:762  Message[] memory */\n      0x60\n        /* \"BulletinBoard.sol\":781:789  messages */\n      0x00\n        /* \"BulletinBoard.sol\":774:789  return messages */\n      dup1\n      sload\n      dup1\n      0x20\n      mul\n      0x20\n      add\n      mload(0x40)\n      swap1\n      dup2\n      add\n      0x40\n      mstore\n      dup1\n      swap3\n      swap2\n      swap1\n      dup2\n      dup2\n      mstore\n      0x20\n      add\n      0x00\n      swap1\n    tag_38:\n      dup3\n      dup3\n      lt\n      iszero\n      tag_39\n      jumpi\n      dup4\n      dup3\n      swap1\n      0x00\n      mstore\n      keccak256(0x00, 0x20)\n      swap1\n      0x02\n      mul\n      add\n      mload(0x40)\n      dup1\n      0x40\n      add\n      0x40\n      mstore\n      swap1\n      dup2\n      0x00\n      dup3\n      add\n      dup1\n      sload\n      tag_41\n      swap1\n      tag_32\n      jump\t// in\n    tag_41:\n      dup1\n      0x1f\n      add\n      0x20\n      dup1\n      swap2\n      div\n      mul\n      0x20\n      add\n      mload(0x40)\n      swap1\n      dup2\n      add\n      0x40\n      mstore\n      dup1\n      swap3\n      swap2\n      swap1\n      dup2\n      dup2\n      mstore\n      0x20\n      add\n      dup3\n      dup1\n      sload\n      tag_42\n      swap1\n      tag_32\n      jump\t// in\n    tag_42:\n      dup1\n      iszero\n      tag_43\n      jumpi\n      dup1\n      0x1f\n      lt\n      tag_44\n      jumpi\n      0x0100\n      dup1\n      dup4\n      sload\n      div\n      mul\n      dup4\n      mstore\n      swap2\n      0x20\n      add\n      swap2\n      jump(tag_43)\n    tag_44:\n      dup3\n      add\n      swap2\n      swap1\n      0x00\n      mstore\n      keccak256(0x00, 0x20)\n      swap1\n    tag_45:\n      dup2\n      sload\n      dup2\n      mstore\n      swap1\n      0x01\n      add\n      swap1\n      0x20\n      add\n      dup1\n      dup4\n      gt\n      tag_45\n      jumpi\n      dup3\n      swap1\n      sub\n      0x1f\n      and\n      dup3\n      add\n      swap2\n    tag_43:\n      pop\n      pop\n      pop\n      pop\n      pop\n      dup2\n      mstore\n      0x20\n      add\n      0x01\n      dup3\n      add\n      0x00\n      swap1\n      sload\n      swap1\n      0x0100\n      exp\n      swap1\n      div\n      0xffffffffffffffffffffffffffffffffffffffff\n      and\n      0xffffffffffffffffffffffffffffffffffffffff\n      and\n      0xffffffffffffffffffffffffffffffffffffffff\n      and\n      dup2\n      mstore\n      pop\n      pop\n      dup2\n      mstore\n      0x20\n      add\n      swap1\n      0x01\n      add\n      swap1\n      jump(tag_38)\n    tag_39:\n      pop\n      pop\n      pop\n      pop\n      swap1\n      pop\n        /* \"BulletinBoard.sol\":702:796  function getMessages() public view returns (Message[] memory) {... */\n      swap1\n      jump\t// out\n        /* \"BulletinBoard.sol\":199:315  function addMessage(string memory newMessage) public {... */\n    tag_21:\n        /* \"BulletinBoard.sol\":262:270  messages */\n      0x00\n        /* \"BulletinBoard.sol\":276:307  Message(newMessage, msg.sender) */\n      mload(0x40)\n      dup1\n      0x40\n      add\n      0x40\n      mstore\n      dup1\n        /* \"BulletinBoard.sol\":284:294  newMessage */\n      dup4\n        /* \"BulletinBoard.sol\":276:307  Message(newMessage, msg.sender) */\n      dup2\n      mstore\n      0x20\n      add\n        /* \"BulletinBoard.sol\":296:306  msg.sender */\n      caller\n        /* \"BulletinBoard.sol\":276:307  Message(newMessage, msg.sender) */\n      0xffffffffffffffffffffffffffffffffffffffff\n      and\n      dup2\n      mstore\n      pop\n        /* \"BulletinBoard.sol\":262:308  messages.push(Message(newMessage, msg.sender)) */\n      swap1\n      dup1\n      0x01\n      dup2\n      sload\n      add\n      dup1\n      dup3\n      sstore\n      dup1\n      swap2\n      pop\n      pop\n      0x01\n      swap1\n      sub\n      swap1\n      0x00\n      mstore\n      keccak256(0x00, 0x20)\n      swap1\n      0x02\n      mul\n      add\n      0x00\n      swap1\n      swap2\n      swap1\n      swap2\n      swap1\n      swap2\n      pop\n      0x00\n      dup3\n      add\n      mload\n      dup2\n      0x00\n      add\n      swap1\n      dup2\n      tag_48\n      swap2\n      swap1\n      tag_49\n      jump\t// in\n    tag_48:\n      pop\n      0x20\n      dup3\n      add\n      mload\n      dup2\n      0x01\n      add\n      exp(0x0100, 0x00)\n      dup2\n      sload\n      dup2\n      0xffffffffffffffffffffffffffffffffffffffff\n      mul\n      not\n      and\n      swap1\n      dup4\n      0xffffffffffffffffffffffffffffffffffffffff\n      and\n      mul\n      or\n      swap1\n      sstore\n      pop\n      pop\n      pop\n        /* \"BulletinBoard.sol\":199:315  function addMessage(string memory newMessage) public {... */\n      pop\n      jump\t// out\n        /* \"BulletinBoard.sol\":515:696  function editMessage(uint256 index, string memory newMessage) public {... */\n    tag_25:\n        /* \"BulletinBoard.sol\":628:638  msg.sender */\n      caller\n        /* \"BulletinBoard.sol\":602:638  messages[index].author == msg.sender */\n      0xffffffffffffffffffffffffffffffffffffffff\n      and\n        /* \"BulletinBoard.sol\":602:610  messages */\n      0x00\n        /* \"BulletinBoard.sol\":611:616  index */\n      dup4\n        /* \"BulletinBoard.sol\":602:617  messages[index] */\n      dup2\n      sload\n      dup2\n      lt\n      tag_51\n      jumpi\n      tag_52\n      tag_53\n      jump\t// in\n    tag_52:\n    tag_51:\n      swap1\n      0x00\n      mstore\n      keccak256(0x00, 0x20)\n      swap1\n      0x02\n      mul\n      add\n        /* \"BulletinBoard.sol\":602:624  messages[index].author */\n      0x01\n      add\n      0x00\n      swap1\n      sload\n      swap1\n      0x0100\n      exp\n      swap1\n      div\n      0xffffffffffffffffffffffffffffffffffffffff\n      and\n        /* \"BulletinBoard.sol\":602:638  messages[index].author == msg.sender */\n      0xffffffffffffffffffffffffffffffffffffffff\n      and\n      eq\n        /* \"BulletinBoard.sol\":594:639  require(messages[index].author == msg.sender) */\n      tag_55\n      jumpi\n      0x00\n      dup1\n      revert\n    tag_55:\n        /* \"BulletinBoard.sol\":679:689  newMessage */\n      dup1\n        /* \"BulletinBoard.sol\":649:657  messages */\n      0x00\n        /* \"BulletinBoard.sol\":658:663  index */\n      dup4\n        /* \"BulletinBoard.sol\":649:664  messages[index] */\n      dup2\n      sload\n      dup2\n      lt\n      tag_56\n      jumpi\n      tag_57\n      tag_53\n      jump\t// in\n    tag_57:\n    tag_56:\n      swap1\n      0x00\n      mstore\n      keccak256(0x00, 0x20)\n      swap1\n      0x02\n      mul\n      add\n        /* \"BulletinBoard.sol\":649:676  messages[index].information */\n      0x00\n      add\n        /* \"BulletinBoard.sol\":649:689  messages[index].information = newMessage */\n      swap1\n      dup2\n      tag_59\n      swap2\n      swap1\n      tag_49\n      jump\t// in\n    tag_59:\n      pop\n        /* \"BulletinBoard.sol\":515:696  function editMessage(uint256 index, string memory newMessage) public {... */\n      pop\n      pop\n      jump\t// out\n        /* \"BulletinBoard.sol\":321:509  function deleteMessage(uint256 index) public {... */\n    tag_28:\n        /* \"BulletinBoard.sol\":410:420  msg.sender */\n      caller\n        /* \"BulletinBoard.sol\":384:420  messages[index].author == msg.sender */\n      0xffffffffffffffffffffffffffffffffffffffff\n      and\n        /* \"BulletinBoard.sol\":384:392  messages */\n      0x00\n        /* \"BulletinBoard.sol\":393:398  index */\n      dup3\n        /* \"BulletinBoard.sol\":384:399  messages[index] */\n      dup2\n      sload\n      dup2\n      lt\n      tag_61\n      jumpi\n      tag_62\n      tag_53\n      jump\t// in\n    tag_62:\n    tag_61:\n      swap1\n      0x00\n      mstore\n      keccak256(0x00, 0x20)\n      swap1\n      0x02\n      mul\n      add\n        /* \"BulletinBoard.sol\":384:406  messages[index].author */\n      0x01\n      add\n      0x00\n      swap1\n      sload\n      swap1\n      0x0100\n      exp\n      swap1\n      div\n      0xffffffffffffffffffffffffffffffffffffffff\n      and\n        /* \"BulletinBoard.sol\":384:420  messages[index].author == msg.sender */\n      0xffffffffffffffffffffffffffffffffffffffff\n      and\n      eq\n        /* \"BulletinBoard.sol\":376:421  require(messages[index].author == msg.sender) */\n      tag_64\n      jumpi\n      0x00\n      dup1\n      revert\n    tag_64:\n        /* \"BulletinBoard.sol\":449:457  messages */\n      0x00\n        /* \"BulletinBoard.sol\":476:477  1 */\n      0x01\n        /* \"BulletinBoard.sol\":458:466  messages */\n      0x00\n        /* \"BulletinBoard.sol\":458:473  messages.length */\n      dup1\n      sload\n      swap1\n      pop\n        /* \"BulletinBoard.sol\":458:477  messages.length - 1 */\n      tag_65\n      swap2\n      swap1\n      tag_66\n      jump\t// in\n    tag_65:\n        /* \"BulletinBoard.sol\":449:478  messages[messages.length - 1] */\n      dup2\n      sload\n      dup2\n      lt\n      tag_67\n      jumpi\n      tag_68\n      tag_53\n      jump\t// in\n    tag_68:\n    tag_67:\n      swap1\n      0x00\n      mstore\n      keccak256(0x00, 0x20)\n      swap1\n      0x02\n      mul\n      add\n        /* \"BulletinBoard.sol\":431:439  messages */\n      0x00\n        /* \"BulletinBoard.sol\":440:445  index */\n      dup3\n        /* \"BulletinBoard.sol\":431:446  messages[index] */\n      dup2\n      sload\n      dup2\n      lt\n      tag_70\n      jumpi\n      tag_71\n      tag_53\n      jump\t// in\n    tag_71:\n    tag_70:\n      swap1\n      0x00\n      mstore\n      keccak256(0x00, 0x20)\n      swap1\n      0x02\n      mul\n      add\n        /* \"BulletinBoard.sol\":431:478  messages[index] = messages[messages.length - 1] */\n      0x00\n      dup3\n      add\n      dup2\n      0x00\n      add\n      swap1\n      dup2\n      tag_73\n      swap2\n      swap1\n      tag_74\n      jump\t// in\n    tag_73:\n      pop\n      0x01\n      dup3\n      add\n      0x00\n      swap1\n      sload\n      swap1\n      0x0100\n      exp\n      swap1\n      div\n      0xffffffffffffffffffffffffffffffffffffffff\n      and\n      dup2\n      0x01\n      add\n      exp(0x0100, 0x00)\n      dup2\n      sload\n      dup2\n      0xffffffffffffffffffffffffffffffffffffffff\n      mul\n      not\n      and\n      swap1\n      dup4\n      0xffffffffffffffffffffffffffffffffffffffff\n      and\n      mul\n      or\n      swap1\n      sstore\n      pop\n      swap1\n      pop\n      pop\n        /* \"BulletinBoard.sol\":488:496  messages */\n      0x00\n        /* \"BulletinBoard.sol\":488:502  messages.pop() */\n      dup1\n      sload\n      dup1\n      tag_75\n      jumpi\n      tag_76\n      tag_77\n      jump\t// in\n    tag_76:\n    tag_75:\n      0x01\n      swap1\n      sub\n      dup2\n      dup2\n      swap1\n      0x00\n      mstore\n      keccak256(0x00, 0x20)\n      swap1\n      0x02\n      mul\n      add\n      0x00\n      dup1\n      dup3\n      add\n      0x00\n      tag_79\n      swap2\n      swap1\n      tag_80\n      jump\t// in\n    tag_79:\n      0x01\n      dup3\n      add\n      exp(0x0100, 0x00)\n      dup2\n      sload\n      swap1\n      0xffffffffffffffffffffffffffffffffffffffff\n      mul\n      not\n      and\n      swap1\n      sstore\n      pop\n      pop\n      swap1\n      sstore\n        /* \"BulletinBoard.sol\":321:509  function deleteMessage(uint256 index) public {... */\n      pop\n      jump\t// out\n    tag_80:\n      pop\n      dup1\n      sload\n      tag_81\n      swap1\n      tag_32\n      jump\t// in\n    tag_81:\n      0x00\n      dup3\n      sstore\n      dup1\n      0x1f\n      lt\n      tag_83\n      jumpi\n      pop\n      jump(tag_82)\n    tag_83:\n      0x1f\n      add\n      0x20\n      swap1\n      div\n      swap1\n      0x00\n      mstore\n      keccak256(0x00, 0x20)\n      swap1\n      dup2\n      add\n      swap1\n      tag_84\n      swap2\n      swap1\n      tag_85\n      jump\t// in\n    tag_84:\n    tag_82:\n      pop\n      jump\t// out\n    tag_85:\n    tag_86:\n      dup1\n      dup3\n      gt\n      iszero\n      tag_87\n      jumpi\n      0x00\n      dup2\n      0x00\n      swap1\n      sstore\n      pop\n      0x01\n      add\n      jump(tag_86)\n    tag_87:\n      pop\n      swap1\n      jump\t// out\n        /* \"#utility.yul\":7:82   */\n    tag_88:\n        /* \"#utility.yul\":40:46   */\n      0x00\n        /* \"#utility.yul\":73:75   */\n      0x40\n        /* \"#utility.yul\":67:76   */\n      mload\n        /* \"#utility.yul\":57:76   */\n      swap1\n      pop\n        /* \"#utility.yul\":7:82   */\n      swap1\n      jump\t// out\n        /* \"#utility.yul\":88:205   */\n    tag_89:\n        /* \"#utility.yul\":197:198   */\n      0x00\n        /* \"#utility.yul\":194:195   */\n      dup1\n        /* \"#utility.yul\":187:199   */\n      revert\n        /* \"#utility.yul\":211:328   */\n    tag_90:\n        /* \"#utility.yul\":320:321   */\n      0x00\n        /* \"#utility.yul\":317:318   */\n      dup1\n        /* \"#utility.yul\":310:322   */\n      revert\n        /* \"#utility.yul\":334:411   */\n    tag_91:\n        /* \"#utility.yul\":371:378   */\n      0x00\n        /* \"#utility.yul\":400:405   */\n      dup2\n        /* \"#utility.yul\":389:405   */\n      swap1\n      pop\n        /* \"#utility.yul\":334:411   */\n      swap2\n      swap1\n      pop\n      jump\t// out\n        /* \"#utility.yul\":417:539   */\n    tag_92:\n        /* \"#utility.yul\":490:514   */\n      tag_145\n        /* \"#utility.yul\":508:513   */\n      dup2\n        /* \"#utility.yul\":490:514   */\n      tag_91\n      jump\t// in\n    tag_145:\n        /* \"#utility.yul\":483:488   */\n      dup2\n        /* \"#utility.yul\":480:515   */\n      eq\n        /* \"#utility.yul\":470:533   */\n      tag_146\n      jumpi\n        /* \"#utility.yul\":529:530   */\n      0x00\n        /* \"#utility.yul\":526:527   */\n      dup1\n        /* \"#utility.yul\":519:531   */\n      revert\n        /* \"#utility.yul\":470:533   */\n    tag_146:\n        /* \"#utility.yul\":417:539   */\n      pop\n      jump\t// out\n        /* \"#utility.yul\":545:684   */\n    tag_93:\n        /* \"#utility.yul\":591:596   */\n      0x00\n        /* \"#utility.yul\":629:635   */\n      dup2\n        /* \"#utility.yul\":616:636   */\n      calldataload\n        /* \"#utility.yul\":607:636   */\n      swap1\n      pop\n        /* \"#utility.yul\":645:678   */\n      tag_148\n        /* \"#utility.yul\":672:677   */\n      dup2\n        /* \"#utility.yul\":645:678   */\n      tag_92\n      jump\t// in\n    tag_148:\n        /* \"#utility.yul\":545:684   */\n      swap3\n      swap2\n      pop\n      pop\n      jump\t// out\n        /* \"#utility.yul\":690:1019   */\n    tag_10:\n        /* \"#utility.yul\":749:755   */\n      0x00\n        /* \"#utility.yul\":798:800   */\n      0x20\n        /* \"#utility.yul\":786:795   */\n      dup3\n        /* \"#utility.yul\":777:784   */\n      dup5\n        /* \"#utility.yul\":773:796   */\n      sub\n        /* \"#utility.yul\":769:801   */\n      slt\n        /* \"#utility.yul\":766:885   */\n      iszero\n      tag_150\n      jumpi\n        /* \"#utility.yul\":804:883   */\n      tag_151\n      tag_89\n      jump\t// in\n    tag_151:\n        /* \"#utility.yul\":766:885   */\n    tag_150:\n        /* \"#utility.yul\":924:925   */\n      0x00\n        /* \"#utility.yul\":949:1002   */\n      tag_152\n        /* \"#utility.yul\":994:1001   */\n      dup5\n        /* \"#utility.yul\":985:991   */\n      dup3\n        /* \"#utility.yul\":974:983   */\n      dup6\n        /* \"#utility.yul\":970:992   */\n      add\n        /* \"#utility.yul\":949:1002   */\n      tag_93\n      jump\t// in\n    tag_152:\n        /* \"#utility.yul\":939:1002   */\n      swap2\n      pop\n        /* \"#utility.yul\":895:1012   */\n      pop\n        /* \"#utility.yul\":690:1019   */\n      swap3\n      swap2\n      pop\n      pop\n      jump\t// out\n        /* \"#utility.yul\":1025:1124   */\n    tag_94:\n        /* \"#utility.yul\":1077:1083   */\n      0x00\n        /* \"#utility.yul\":1111:1116   */\n      dup2\n        /* \"#utility.yul\":1105:1117   */\n      mload\n        /* \"#utility.yul\":1095:1117   */\n      swap1\n      pop\n        /* \"#utility.yul\":1025:1124   */\n      swap2\n      swap1\n      pop\n      jump\t// out\n        /* \"#utility.yul\":1130:1299   */\n    tag_95:\n        /* \"#utility.yul\":1214:1225   */\n      0x00\n        /* \"#utility.yul\":1248:1254   */\n      dup3\n        /* \"#utility.yul\":1243:1246   */\n      dup3\n        /* \"#utility.yul\":1236:1255   */\n      mstore\n        /* \"#utility.yul\":1288:1292   */\n      0x20\n        /* \"#utility.yul\":1283:1286   */\n      dup3\n        /* \"#utility.yul\":1279:1293   */\n      add\n        /* \"#utility.yul\":1264:1293   */\n      swap1\n      pop\n        /* \"#utility.yul\":1130:1299   */\n      swap3\n      swap2\n      pop\n      pop\n      jump\t// out\n        /* \"#utility.yul\":1305:1612   */\n    tag_96:\n        /* \"#utility.yul\":1373:1374   */\n      0x00\n        /* \"#utility.yul\":1383:1496   */\n    tag_156:\n        /* \"#utility.yul\":1397:1403   */\n      dup4\n        /* \"#utility.yul\":1394:1395   */\n      dup2\n        /* \"#utility.yul\":1391:1404   */\n      lt\n        /* \"#utility.yul\":1383:1496   */\n      iszero\n      tag_158\n      jumpi\n        /* \"#utility.yul\":1482:1483   */\n      dup1\n        /* \"#utility.yul\":1477:1480   */\n      dup3\n        /* \"#utility.yul\":1473:1484   */\n      add\n        /* \"#utility.yul\":1467:1485   */\n      mload\n        /* \"#utility.yul\":1463:1464   */\n      dup2\n        /* \"#utility.yul\":1458:1461   */\n      dup5\n        /* \"#utility.yul\":1454:1465   */\n      add\n        /* \"#utility.yul\":1447:1486   */\n      mstore\n        /* \"#utility.yul\":1419:1421   */\n      0x20\n        /* \"#utility.yul\":1416:1417   */\n      dup2\n        /* \"#utility.yul\":1412:1422   */\n      add\n        /* \"#utility.yul\":1407:1422   */\n      swap1\n      pop\n        /* \"#utility.yul\":1383:1496   */\n      jump(tag_156)\n    tag_158:\n        /* \"#utility.yul\":1514:1520   */\n      dup4\n        /* \"#utility.yul\":1511:1512   */\n      dup2\n        /* \"#utility.yul\":1508:1521   */\n      gt\n        /* \"#utility.yul\":1505:1606   */\n      iszero\n      tag_159\n      jumpi\n        /* \"#utility.yul\":1594:1595   */\n      0x00\n        /* \"#utility.yul\":1585:1591   */\n      dup5\n        /* \"#utility.yul\":1580:1583   */\n      dup5\n        /* \"#utility.yul\":1576:1592   */\n      add\n        /* \"#utility.yul\":1569:1596   */\n      mstore\n        /* \"#utility.yul\":1505:1606   */\n    tag_159:\n        /* \"#utility.yul\":1354:1612   */\n      pop\n        /* \"#utility.yul\":1305:1612   */\n      pop\n      pop\n      pop\n      jump\t// out\n        /* \"#utility.yul\":1618:1720   */\n    tag_97:\n        /* \"#utility.yul\":1659:1665   */\n      0x00\n        /* \"#utility.yul\":1710:1712   */\n      0x1f\n        /* \"#utility.yul\":1706:1713   */\n      not\n        /* \"#utility.yul\":1701:1703   */\n      0x1f\n        /* \"#utility.yul\":1694:1699   */\n      dup4\n        /* \"#utility.yul\":1690:1704   */\n      add\n        /* \"#utility.yul\":1686:1714   */\n      and\n        /* \"#utility.yul\":1676:1714   */\n      swap1\n      pop\n        /* \"#utility.yul\":1618:1720   */\n      swap2\n      swap1\n      pop\n      jump\t// out\n        /* \"#utility.yul\":1726:2090   */\n    tag_98:\n        /* \"#utility.yul\":1814:1817   */\n      0x00\n        /* \"#utility.yul\":1842:1881   */\n      tag_162\n        /* \"#utility.yul\":1875:1880   */\n      dup3\n        /* \"#utility.yul\":1842:1881   */\n      tag_94\n      jump\t// in\n    tag_162:\n        /* \"#utility.yul\":1897:1968   */\n      tag_163\n        /* \"#utility.yul\":1961:1967   */\n      dup2\n        /* \"#utility.yul\":1956:1959   */\n      dup6\n        /* \"#utility.yul\":1897:1968   */\n      tag_95\n      jump\t// in\n    tag_163:\n        /* \"#utility.yul\":1890:1968   */\n      swap4\n      pop\n        /* \"#utility.yul\":1977:2029   */\n      tag_164\n        /* \"#utility.yul\":2022:2028   */\n      dup2\n        /* \"#utility.yul\":2017:2020   */\n      dup6\n        /* \"#utility.yul\":2010:2014   */\n      0x20\n        /* \"#utility.yul\":2003:2008   */\n      dup7\n        /* \"#utility.yul\":1999:2015   */\n      add\n        /* \"#utility.yul\":1977:2029   */\n      tag_96\n      jump\t// in\n    tag_164:\n        /* \"#utility.yul\":2054:2083   */\n      tag_165\n        /* \"#utility.yul\":2076:2082   */\n      dup2\n        /* \"#utility.yul\":2054:2083   */\n      tag_97\n      jump\t// in\n    tag_165:\n        /* \"#utility.yul\":2049:2052   */\n      dup5\n        /* \"#utility.yul\":2045:2084   */\n      add\n        /* \"#utility.yul\":2038:2084   */\n      swap2\n      pop\n        /* \"#utility.yul\":1818:2090   */\n      pop\n        /* \"#utility.yul\":1726:2090   */\n      swap3\n      swap2\n      pop\n      pop\n      jump\t// out\n        /* \"#utility.yul\":2096:2222   */\n    tag_99:\n        /* \"#utility.yul\":2133:2140   */\n      0x00\n        /* \"#utility.yul\":2173:2215   */\n      0xffffffffffffffffffffffffffffffffffffffff\n        /* \"#utility.yul\":2166:2171   */\n      dup3\n        /* \"#utility.yul\":2162:2216   */\n      and\n        /* \"#utility.yul\":2151:2216   */\n      swap1\n      pop\n        /* \"#utility.yul\":2096:2222   */\n      swap2\n      swap1\n      pop\n      jump\t// out\n        /* \"#utility.yul\":2228:2324   */\n    tag_100:\n        /* \"#utility.yul\":2265:2272   */\n      0x00\n        /* \"#utility.yul\":2294:2318   */\n      tag_168\n        /* \"#utility.yul\":2312:2317   */\n      dup3\n        /* \"#utility.yul\":2294:2318   */\n      tag_99\n      jump\t// in\n    tag_168:\n        /* \"#utility.yul\":2283:2318   */\n      swap1\n      pop\n        /* \"#utility.yul\":2228:2324   */\n      swap2\n      swap1\n      pop\n      jump\t// out\n        /* \"#utility.yul\":2330:2448   */\n    tag_101:\n        /* \"#utility.yul\":2417:2441   */\n      tag_170\n        /* \"#utility.yul\":2435:2440   */\n      dup2\n        /* \"#utility.yul\":2417:2441   */\n      tag_100\n      jump\t// in\n    tag_170:\n        /* \"#utility.yul\":2412:2415   */\n      dup3\n        /* \"#utility.yul\":2405:2442   */\n      mstore\n        /* \"#utility.yul\":2330:2448   */\n      pop\n      pop\n      jump\t// out\n        /* \"#utility.yul\":2454:2877   */\n    tag_13:\n        /* \"#utility.yul\":2595:2599   */\n      0x00\n        /* \"#utility.yul\":2633:2635   */\n      0x40\n        /* \"#utility.yul\":2622:2631   */\n      dup3\n        /* \"#utility.yul\":2618:2636   */\n      add\n        /* \"#utility.yul\":2610:2636   */\n      swap1\n      pop\n        /* \"#utility.yul\":2682:2691   */\n      dup2\n        /* \"#utility.yul\":2676:2680   */\n      dup2\n        /* \"#utility.yul\":2672:2692   */\n      sub\n        /* \"#utility.yul\":2668:2669   */\n      0x00\n        /* \"#utility.yul\":2657:2666   */\n      dup4\n        /* \"#utility.yul\":2653:2670   */\n      add\n        /* \"#utility.yul\":2646:2693   */\n      mstore\n        /* \"#utility.yul\":2710:2788   */\n      tag_172\n        /* \"#utility.yul\":2783:2787   */\n      dup2\n        /* \"#utility.yul\":2774:2780   */\n      dup6\n        /* \"#utility.yul\":2710:2788   */\n      tag_98\n      jump\t// in\n    tag_172:\n        /* \"#utility.yul\":2702:2788   */\n      swap1\n      pop\n        /* \"#utility.yul\":2798:2870   */\n      tag_173\n        /* \"#utility.yul\":2866:2868   */\n      0x20\n        /* \"#utility.yul\":2855:2864   */\n      dup4\n        /* \"#utility.yul\":2851:2869   */\n      add\n        /* \"#utility.yul\":2842:2848   */\n      dup5\n        /* \"#utility.yul\":2798:2870   */\n      tag_101\n      jump\t// in\n    tag_173:\n        /* \"#utility.yul\":2454:2877   */\n      swap4\n      swap3\n      pop\n      pop\n      pop\n      jump\t// out\n        /* \"#utility.yul\":2883:3019   */\n    tag_102:\n        /* \"#utility.yul\":2972:2978   */\n      0x00\n        /* \"#utility.yul\":3006:3011   */\n      dup2\n        /* \"#utility.yul\":3000:3012   */\n      mload\n        /* \"#utility.yul\":2990:3012   */\n      swap1\n      pop\n        /* \"#utility.yul\":2883:3019   */\n      swap2\n      swap1\n      pop\n      jump\t// out\n        /* \"#utility.yul\":3025:3231   */\n    tag_103:\n        /* \"#utility.yul\":3146:3157   */\n      0x00\n        /* \"#utility.yul\":3180:3186   */\n      dup3\n        /* \"#utility.yul\":3175:3178   */\n      dup3\n        /* \"#utility.yul\":3168:3187   */\n      mstore\n        /* \"#utility.yul\":3220:3224   */\n      0x20\n        /* \"#utility.yul\":3215:3218   */\n      dup3\n        /* \"#utility.yul\":3211:3225   */\n      add\n        /* \"#utility.yul\":3196:3225   */\n      swap1\n      pop\n        /* \"#utility.yul\":3025:3231   */\n      swap3\n      swap2\n      pop\n      pop\n      jump\t// out\n        /* \"#utility.yul\":3237:3391   */\n    tag_104:\n        /* \"#utility.yul\":3326:3330   */\n      0x00\n        /* \"#utility.yul\":3349:3352   */\n      dup2\n        /* \"#utility.yul\":3341:3352   */\n      swap1\n      pop\n        /* \"#utility.yul\":3379:3383   */\n      0x20\n        /* \"#utility.yul\":3374:3377   */\n      dup3\n        /* \"#utility.yul\":3370:3384   */\n      add\n        /* \"#utility.yul\":3362:3384   */\n      swap1\n      pop\n        /* \"#utility.yul\":3237:3391   */\n      swap2\n      swap1\n      pop\n      jump\t// out\n        /* \"#utility.yul\":3397:3556   */\n    tag_105:\n        /* \"#utility.yul\":3471:3482   */\n      0x00\n        /* \"#utility.yul\":3505:3511   */\n      dup3\n        /* \"#utility.yul\":3500:3503   */\n      dup3\n        /* \"#utility.yul\":3493:3512   */\n      mstore\n        /* \"#utility.yul\":3545:3549   */\n      0x20\n        /* \"#utility.yul\":3540:3543   */\n      dup3\n        /* \"#utility.yul\":3536:3550   */\n      add\n        /* \"#utility.yul\":3521:3550   */\n      swap1\n      pop\n        /* \"#utility.yul\":3397:3556   */\n      swap3\n      swap2\n      pop\n      pop\n      jump\t// out\n        /* \"#utility.yul\":3562:3906   */\n    tag_106:\n        /* \"#utility.yul\":3640:3643   */\n      0x00\n        /* \"#utility.yul\":3668:3707   */\n      tag_179\n        /* \"#utility.yul\":3701:3706   */\n      dup3\n        /* \"#utility.yul\":3668:3707   */\n      tag_94\n      jump\t// in\n    tag_179:\n        /* \"#utility.yul\":3723:3784   */\n      tag_180\n        /* \"#utility.yul\":3777:3783   */\n      dup2\n        /* \"#utility.yul\":3772:3775   */\n      dup6\n        /* \"#utility.yul\":3723:3784   */\n      tag_105\n      jump\t// in\n    tag_180:\n        /* \"#utility.yul\":3716:3784   */\n      swap4\n      pop\n        /* \"#utility.yul\":3793:3845   */\n      tag_181\n        /* \"#utility.yul\":3838:3844   */\n      dup2\n        /* \"#utility.yul\":3833:3836   */\n      dup6\n        /* \"#utility.yul\":3826:3830   */\n      0x20\n        /* \"#utility.yul\":3819:3824   */\n      dup7\n        /* \"#utility.yul\":3815:3831   */\n      add\n        /* \"#utility.yul\":3793:3845   */\n      tag_96\n      jump\t// in\n    tag_181:\n        /* \"#utility.yul\":3870:3899   */\n      tag_182\n        /* \"#utility.yul\":3892:3898   */\n      dup2\n        /* \"#utility.yul\":3870:3899   */\n      tag_97\n      jump\t// in\n    tag_182:\n        /* \"#utility.yul\":3865:3868   */\n      dup5\n        /* \"#utility.yul\":3861:3900   */\n      add\n        /* \"#utility.yul\":3854:3900   */\n      swap2\n      pop\n        /* \"#utility.yul\":3644:3906   */\n      pop\n        /* \"#utility.yul\":3562:3906   */\n      swap3\n      swap2\n      pop\n      pop\n      jump\t// out\n        /* \"#utility.yul\":3912:4020   */\n    tag_107:\n        /* \"#utility.yul\":3989:4013   */\n      tag_184\n        /* \"#utility.yul\":4007:4012   */\n      dup2\n        /* \"#utility.yul\":3989:4013   */\n      tag_100\n      jump\t// in\n    tag_184:\n        /* \"#utility.yul\":3984:3987   */\n      dup3\n        /* \"#utility.yul\":3977:4014   */\n      mstore\n        /* \"#utility.yul\":3912:4020   */\n      pop\n      pop\n      jump\t// out\n        /* \"#utility.yul\":4094:4693   */\n    tag_108:\n        /* \"#utility.yul\":4197:4200   */\n      0x00\n        /* \"#utility.yul\":4233:4237   */\n      0x40\n        /* \"#utility.yul\":4228:4231   */\n      dup4\n        /* \"#utility.yul\":4224:4238   */\n      add\n        /* \"#utility.yul\":4327:4331   */\n      0x00\n        /* \"#utility.yul\":4320:4325   */\n      dup4\n        /* \"#utility.yul\":4316:4332   */\n      add\n        /* \"#utility.yul\":4310:4333   */\n      mload\n        /* \"#utility.yul\":4380:4383   */\n      dup5\n        /* \"#utility.yul\":4374:4378   */\n      dup3\n        /* \"#utility.yul\":4370:4384   */\n      sub\n        /* \"#utility.yul\":4363:4367   */\n      0x00\n        /* \"#utility.yul\":4358:4361   */\n      dup7\n        /* \"#utility.yul\":4354:4368   */\n      add\n        /* \"#utility.yul\":4347:4385   */\n      mstore\n        /* \"#utility.yul\":4406:4479   */\n      tag_186\n        /* \"#utility.yul\":4474:4478   */\n      dup3\n        /* \"#utility.yul\":4460:4472   */\n      dup3\n        /* \"#utility.yul\":4406:4479   */\n      tag_106\n      jump\t// in\n    tag_186:\n        /* \"#utility.yul\":4398:4479   */\n      swap2\n      pop\n        /* \"#utility.yul\":4248:4490   */\n      pop\n        /* \"#utility.yul\":4574:4578   */\n      0x20\n        /* \"#utility.yul\":4567:4572   */\n      dup4\n        /* \"#utility.yul\":4563:4579   */\n      add\n        /* \"#utility.yul\":4557:4580   */\n      mload\n        /* \"#utility.yul\":4593:4656   */\n      tag_187\n        /* \"#utility.yul\":4650:4654   */\n      0x20\n        /* \"#utility.yul\":4645:4648   */\n      dup7\n        /* \"#utility.yul\":4641:4655   */\n      add\n        /* \"#utility.yul\":4627:4639   */\n      dup3\n        /* \"#utility.yul\":4593:4656   */\n      tag_107\n      jump\t// in\n    tag_187:\n        /* \"#utility.yul\":4500:4666   */\n      pop\n        /* \"#utility.yul\":4683:4687   */\n      dup1\n        /* \"#utility.yul\":4676:4687   */\n      swap2\n      pop\n        /* \"#utility.yul\":4202:4693   */\n      pop\n        /* \"#utility.yul\":4094:4693   */\n      swap3\n      swap2\n      pop\n      pop\n      jump\t// out\n        /* \"#utility.yul\":4699:4943   */\n    tag_109:\n        /* \"#utility.yul\":4812:4822   */\n      0x00\n        /* \"#utility.yul\":4847:4937   */\n      tag_189\n        /* \"#utility.yul\":4933:4936   */\n      dup4\n        /* \"#utility.yul\":4925:4931   */\n      dup4\n        /* \"#utility.yul\":4847:4937   */\n      tag_108\n      jump\t// in\n    tag_189:\n        /* \"#utility.yul\":4833:4937   */\n      swap1\n      pop\n        /* \"#utility.yul\":4699:4943   */\n      swap3\n      swap2\n      pop\n      pop\n      jump\t// out\n        /* \"#utility.yul\":4949:5084   */\n    tag_110:\n        /* \"#utility.yul\":5041:5045   */\n      0x00\n        /* \"#utility.yul\":5073:5077   */\n      0x20\n        /* \"#utility.yul\":5068:5071   */\n      dup3\n        /* \"#utility.yul\":5064:5078   */\n      add\n        /* \"#utility.yul\":5056:5078   */\n      swap1\n      pop\n        /* \"#utility.yul\":4949:5084   */\n      swap2\n      swap1\n      pop\n      jump\t// out\n        /* \"#utility.yul\":5162:6249   */\n    tag_111:\n        /* \"#utility.yul\":5325:5328   */\n      0x00\n        /* \"#utility.yul\":5354:5430   */\n      tag_192\n        /* \"#utility.yul\":5424:5429   */\n      dup3\n        /* \"#utility.yul\":5354:5430   */\n      tag_102\n      jump\t// in\n    tag_192:\n        /* \"#utility.yul\":5446:5554   */\n      tag_193\n        /* \"#utility.yul\":5547:5553   */\n      dup2\n        /* \"#utility.yul\":5542:5545   */\n      dup6\n        /* \"#utility.yul\":5446:5554   */\n      tag_103\n      jump\t// in\n    tag_193:\n        /* \"#utility.yul\":5439:5554   */\n      swap4\n      pop\n        /* \"#utility.yul\":5580:5583   */\n      dup4\n        /* \"#utility.yul\":5625:5629   */\n      0x20\n        /* \"#utility.yul\":5617:5623   */\n      dup3\n        /* \"#utility.yul\":5613:5630   */\n      mul\n        /* \"#utility.yul\":5608:5611   */\n      dup6\n        /* \"#utility.yul\":5604:5631   */\n      add\n        /* \"#utility.yul\":5655:5733   */\n      tag_194\n        /* \"#utility.yul\":5727:5732   */\n      dup6\n        /* \"#utility.yul\":5655:5733   */\n      tag_104\n      jump\t// in\n    tag_194:\n        /* \"#utility.yul\":5756:5763   */\n      dup1\n        /* \"#utility.yul\":5787:5788   */\n      0x00\n        /* \"#utility.yul\":5772:6204   */\n    tag_195:\n        /* \"#utility.yul\":5797:5803   */\n      dup6\n        /* \"#utility.yul\":5794:5795   */\n      dup2\n        /* \"#utility.yul\":5791:5804   */\n      lt\n        /* \"#utility.yul\":5772:6204   */\n      iszero\n      tag_197\n      jumpi\n        /* \"#utility.yul\":5868:5877   */\n      dup5\n        /* \"#utility.yul\":5862:5866   */\n      dup5\n        /* \"#utility.yul\":5858:5878   */\n      sub\n        /* \"#utility.yul\":5853:5856   */\n      dup10\n        /* \"#utility.yul\":5846:5879   */\n      mstore\n        /* \"#utility.yul\":5919:5925   */\n      dup2\n        /* \"#utility.yul\":5913:5926   */\n      mload\n        /* \"#utility.yul\":5947:6055   */\n      tag_198\n        /* \"#utility.yul\":6050:6054   */\n      dup6\n        /* \"#utility.yul\":6035:6048   */\n      dup3\n        /* \"#utility.yul\":5947:6055   */\n      tag_109\n      jump\t// in\n    tag_198:\n        /* \"#utility.yul\":5939:6055   */\n      swap5\n      pop\n        /* \"#utility.yul\":6078:6160   */\n      tag_199\n        /* \"#utility.yul\":6153:6159   */\n      dup4\n        /* \"#utility.yul\":6078:6160   */\n      tag_110\n      jump\t// in\n    tag_199:\n        /* \"#utility.yul\":6068:6160   */\n      swap3\n      pop\n        /* \"#utility.yul\":6189:6193   */\n      0x20\n        /* \"#utility.yul\":6184:6187   */\n      dup11\n        /* \"#utility.yul\":6180:6194   */\n      add\n        /* \"#utility.yul\":6173:6194   */\n      swap10\n      pop\n        /* \"#utility.yul\":5832:6204   */\n      pop\n        /* \"#utility.yul\":5819:5820   */\n      0x01\n        /* \"#utility.yul\":5816:5817   */\n      dup2\n        /* \"#utility.yul\":5812:5821   */\n      add\n        /* \"#utility.yul\":5807:5821   */\n      swap1\n      pop\n        /* \"#utility.yul\":5772:6204   */\n      jump(tag_195)\n    tag_197:\n        /* \"#utility.yul\":5776:5790   */\n      pop\n        /* \"#utility.yul\":6220:6224   */\n      dup3\n        /* \"#utility.yul\":6213:6224   */\n      swap8\n      pop\n        /* \"#utility.yul\":6240:6243   */\n      dup8\n        /* \"#utility.yul\":6233:6243   */\n      swap6\n      pop\n        /* \"#utility.yul\":5330:6249   */\n      pop\n      pop\n      pop\n      pop\n      pop\n        /* \"#utility.yul\":5162:6249   */\n      swap3\n      swap2\n      pop\n      pop\n      jump\t// out\n        /* \"#utility.yul\":6255:6716   */\n    tag_17:\n        /* \"#utility.yul\":6442:6446   */\n      0x00\n        /* \"#utility.yul\":6480:6482   */\n      0x20\n        /* \"#utility.yul\":6469:6478   */\n      dup3\n        /* \"#utility.yul\":6465:6483   */\n      add\n        /* \"#utility.yul\":6457:6483   */\n      swap1\n      pop\n        /* \"#utility.yul\":6529:6538   */\n      dup2\n        /* \"#utility.yul\":6523:6527   */\n      dup2\n        /* \"#utility.yul\":6519:6539   */\n      sub\n        /* \"#utility.yul\":6515:6516   */\n      0x00\n        /* \"#utility.yul\":6504:6513   */\n      dup4\n        /* \"#utility.yul\":6500:6517   */\n      add\n        /* \"#utility.yul\":6493:6540   */\n      mstore\n        /* \"#utility.yul\":6557:6709   */\n      tag_201\n        /* \"#utility.yul\":6704:6708   */\n      dup2\n        /* \"#utility.yul\":6695:6701   */\n      dup5\n        /* \"#utility.yul\":6557:6709   */\n      tag_111\n      jump\t// in\n    tag_201:\n        /* \"#utility.yul\":6549:6709   */\n      swap1\n      pop\n        /* \"#utility.yul\":6255:6716   */\n      swap3\n      swap2\n      pop\n      pop\n      jump\t// out\n        /* \"#utility.yul\":6722:6839   */\n    tag_112:\n        /* \"#utility.yul\":6831:6832   */\n      0x00\n        /* \"#utility.yul\":6828:6829   */\n      dup1\n        /* \"#utility.yul\":6821:6833   */\n      revert\n        /* \"#utility.yul\":6845:6962   */\n    tag_113:\n        /* \"#utility.yul\":6954:6955   */\n      0x00\n        /* \"#utility.yul\":6951:6952   */\n      dup1\n        /* \"#utility.yul\":6944:6956   */\n      revert\n        /* \"#utility.yul\":6968:7148   */\n    tag_114:\n        /* \"#utility.yul\":7016:7093   */\n      0x4e487b7100000000000000000000000000000000000000000000000000000000\n        /* \"#utility.yul\":7013:7014   */\n      0x00\n        /* \"#utility.yul\":7006:7094   */\n      mstore\n        /* \"#utility.yul\":7113:7117   */\n      0x41\n        /* \"#utility.yul\":7110:7111   */\n      0x04\n        /* \"#utility.yul\":7103:7118   */\n      mstore\n        /* \"#utility.yul\":7137:7141   */\n      0x24\n        /* \"#utility.yul\":7134:7135   */\n      0x00\n        /* \"#utility.yul\":7127:7142   */\n      revert\n        /* \"#utility.yul\":7154:7435   */\n    tag_115:\n        /* \"#utility.yul\":7237:7264   */\n      tag_206\n        /* \"#utility.yul\":7259:7263   */\n      dup3\n        /* \"#utility.yul\":7237:7264   */\n      tag_97\n      jump\t// in\n    tag_206:\n        /* \"#utility.yul\":7229:7235   */\n      dup2\n        /* \"#utility.yul\":7225:7265   */\n      add\n        /* \"#utility.yul\":7367:7373   */\n      dup2\n        /* \"#utility.yul\":7355:7365   */\n      dup2\n        /* \"#utility.yul\":7352:7374   */\n      lt\n        /* \"#utility.yul\":7331:7349   */\n      0xffffffffffffffff\n        /* \"#utility.yul\":7319:7329   */\n      dup3\n        /* \"#utility.yul\":7316:7350   */\n      gt\n        /* \"#utility.yul\":7313:7375   */\n      or\n        /* \"#utility.yul\":7310:7398   */\n      iszero\n      tag_207\n      jumpi\n        /* \"#utility.yul\":7378:7396   */\n      tag_208\n      tag_114\n      jump\t// in\n    tag_208:\n        /* \"#utility.yul\":7310:7398   */\n    tag_207:\n        /* \"#utility.yul\":7418:7428   */\n      dup1\n        /* \"#utility.yul\":7414:7416   */\n      0x40\n        /* \"#utility.yul\":7407:7429   */\n      mstore\n        /* \"#utility.yul\":7197:7435   */\n      pop\n        /* \"#utility.yul\":7154:7435   */\n      pop\n      pop\n      jump\t// out\n        /* \"#utility.yul\":7441:7570   */\n    tag_116:\n        /* \"#utility.yul\":7475:7481   */\n      0x00\n        /* \"#utility.yul\":7502:7522   */\n      tag_210\n      tag_88\n      jump\t// in\n    tag_210:\n        /* \"#utility.yul\":7492:7522   */\n      swap1\n      pop\n        /* \"#utility.yul\":7531:7564   */\n      tag_211\n        /* \"#utility.yul\":7559:7563   */\n      dup3\n        /* \"#utility.yul\":7551:7557   */\n      dup3\n        /* \"#utility.yul\":7531:7564   */\n      tag_115\n      jump\t// in\n    tag_211:\n        /* \"#utility.yul\":7441:7570   */\n      swap2\n      swap1\n      pop\n      jump\t// out\n        /* \"#utility.yul\":7576:7884   */\n    tag_117:\n        /* \"#utility.yul\":7638:7642   */\n      0x00\n        /* \"#utility.yul\":7728:7746   */\n      0xffffffffffffffff\n        /* \"#utility.yul\":7720:7726   */\n      dup3\n        /* \"#utility.yul\":7717:7747   */\n      gt\n        /* \"#utility.yul\":7714:7770   */\n      iszero\n      tag_213\n      jumpi\n        /* \"#utility.yul\":7750:7768   */\n      tag_214\n      tag_114\n      jump\t// in\n    tag_214:\n        /* \"#utility.yul\":7714:7770   */\n    tag_213:\n        /* \"#utility.yul\":7788:7817   */\n      tag_215\n        /* \"#utility.yul\":7810:7816   */\n      dup3\n        /* \"#utility.yul\":7788:7817   */\n      tag_97\n      jump\t// in\n    tag_215:\n        /* \"#utility.yul\":7780:7817   */\n      swap1\n      pop\n        /* \"#utility.yul\":7872:7876   */\n      0x20\n        /* \"#utility.yul\":7866:7870   */\n      dup2\n        /* \"#utility.yul\":7862:7877   */\n      add\n        /* \"#utility.yul\":7854:7877   */\n      swap1\n      pop\n        /* \"#utility.yul\":7576:7884   */\n      swap2\n      swap1\n      pop\n      jump\t// out\n        /* \"#utility.yul\":7890:8044   */\n    tag_118:\n        /* \"#utility.yul\":7974:7980   */\n      dup3\n        /* \"#utility.yul\":7969:7972   */\n      dup2\n        /* \"#utility.yul\":7964:7967   */\n      dup4\n        /* \"#utility.yul\":7951:7981   */\n      calldatacopy\n        /* \"#utility.yul\":8036:8037   */\n      0x00\n        /* \"#utility.yul\":8027:8033   */\n      dup4\n        /* \"#utility.yul\":8022:8025   */\n      dup4\n        /* \"#utility.yul\":8018:8034   */\n      add\n        /* \"#utility.yul\":8011:8038   */\n      mstore\n        /* \"#utility.yul\":7890:8044   */\n      pop\n      pop\n      pop\n      jump\t// out\n        /* \"#utility.yul\":8050:8462   */\n    tag_119:\n        /* \"#utility.yul\":8128:8133   */\n      0x00\n        /* \"#utility.yul\":8153:8219   */\n      tag_218\n        /* \"#utility.yul\":8169:8218   */\n      tag_219\n        /* \"#utility.yul\":8211:8217   */\n      dup5\n        /* \"#utility.yul\":8169:8218   */\n      tag_117\n      jump\t// in\n    tag_219:\n        /* \"#utility.yul\":8153:8219   */\n      tag_116\n      jump\t// in\n    tag_218:\n        /* \"#utility.yul\":8144:8219   */\n      swap1\n      pop\n        /* \"#utility.yul\":8242:8248   */\n      dup3\n        /* \"#utility.yul\":8235:8240   */\n      dup2\n        /* \"#utility.yul\":8228:8249   */\n      mstore\n        /* \"#utility.yul\":8280:8284   */\n      0x20\n        /* \"#utility.yul\":8273:8278   */\n      dup2\n        /* \"#utility.yul\":8269:8285   */\n      add\n        /* \"#utility.yul\":8318:8321   */\n      dup5\n        /* \"#utility.yul\":8309:8315   */\n      dup5\n        /* \"#utility.yul\":8304:8307   */\n      dup5\n        /* \"#utility.yul\":8300:8316   */\n      add\n        /* \"#utility.yul\":8297:8322   */\n      gt\n        /* \"#utility.yul\":8294:8406   */\n      iszero\n      tag_220\n      jumpi\n        /* \"#utility.yul\":8325:8404   */\n      tag_221\n      tag_113\n      jump\t// in\n    tag_221:\n        /* \"#utility.yul\":8294:8406   */\n    tag_220:\n        /* \"#utility.yul\":8415:8456   */\n      tag_222\n        /* \"#utility.yul\":8449:8455   */\n      dup5\n        /* \"#utility.yul\":8444:8447   */\n      dup3\n        /* \"#utility.yul\":8439:8442   */\n      dup6\n        /* \"#utility.yul\":8415:8456   */\n      tag_118\n      jump\t// in\n    tag_222:\n        /* \"#utility.yul\":8134:8462   */\n      pop\n        /* \"#utility.yul\":8050:8462   */\n      swap4\n      swap3\n      pop\n      pop\n      pop\n      jump\t// out\n        /* \"#utility.yul\":8482:8822   */\n    tag_120:\n        /* \"#utility.yul\":8538:8543   */\n      0x00\n        /* \"#utility.yul\":8587:8590   */\n      dup3\n        /* \"#utility.yul\":8580:8584   */\n      0x1f\n        /* \"#utility.yul\":8572:8578   */\n      dup4\n        /* \"#utility.yul\":8568:8585   */\n      add\n        /* \"#utility.yul\":8564:8591   */\n      slt\n        /* \"#utility.yul\":8554:8676   */\n      tag_224\n      jumpi\n        /* \"#utility.yul\":8595:8674   */\n      tag_225\n      tag_112\n      jump\t// in\n    tag_225:\n        /* \"#utility.yul\":8554:8676   */\n    tag_224:\n        /* \"#utility.yul\":8712:8718   */\n      dup2\n        /* \"#utility.yul\":8699:8719   */\n      calldataload\n        /* \"#utility.yul\":8737:8816   */\n      tag_226\n        /* \"#utility.yul\":8812:8815   */\n      dup5\n        /* \"#utility.yul\":8804:8810   */\n      dup3\n        /* \"#utility.yul\":8797:8801   */\n      0x20\n        /* \"#utility.yul\":8789:8795   */\n      dup7\n        /* \"#utility.yul\":8785:8802   */\n      add\n        /* \"#utility.yul\":8737:8816   */\n      tag_119\n      jump\t// in\n    tag_226:\n        /* \"#utility.yul\":8728:8816   */\n      swap2\n      pop\n        /* \"#utility.yul\":8544:8822   */\n      pop\n        /* \"#utility.yul\":8482:8822   */\n      swap3\n      swap2\n      pop\n      pop\n      jump\t// out\n        /* \"#utility.yul\":8828:9337   */\n    tag_20:\n        /* \"#utility.yul\":8897:8903   */\n      0x00\n        /* \"#utility.yul\":8946:8948   */\n      0x20\n        /* \"#utility.yul\":8934:8943   */\n      dup3\n        /* \"#utility.yul\":8925:8932   */\n      dup5\n        /* \"#utility.yul\":8921:8944   */\n      sub\n        /* \"#utility.yul\":8917:8949   */\n      slt\n        /* \"#utility.yul\":8914:9033   */\n      iszero\n      tag_228\n      jumpi\n        /* \"#utility.yul\":8952:9031   */\n      tag_229\n      tag_89\n      jump\t// in\n    tag_229:\n        /* \"#utility.yul\":8914:9033   */\n    tag_228:\n        /* \"#utility.yul\":9100:9101   */\n      0x00\n        /* \"#utility.yul\":9089:9098   */\n      dup3\n        /* \"#utility.yul\":9085:9102   */\n      add\n        /* \"#utility.yul\":9072:9103   */\n      calldataload\n        /* \"#utility.yul\":9130:9148   */\n      0xffffffffffffffff\n        /* \"#utility.yul\":9122:9128   */\n      dup2\n        /* \"#utility.yul\":9119:9149   */\n      gt\n        /* \"#utility.yul\":9116:9233   */\n      iszero\n      tag_230\n      jumpi\n        /* \"#utility.yul\":9152:9231   */\n      tag_231\n      tag_90\n      jump\t// in\n    tag_231:\n        /* \"#utility.yul\":9116:9233   */\n    tag_230:\n        /* \"#utility.yul\":9257:9320   */\n      tag_232\n        /* \"#utility.yul\":9312:9319   */\n      dup5\n        /* \"#utility.yul\":9303:9309   */\n      dup3\n        /* \"#utility.yul\":9292:9301   */\n      dup6\n        /* \"#utility.yul\":9288:9310   */\n      add\n        /* \"#utility.yul\":9257:9320   */\n      tag_120\n      jump\t// in\n    tag_232:\n        /* \"#utility.yul\":9247:9320   */\n      swap2\n      pop\n        /* \"#utility.yul\":9043:9330   */\n      pop\n        /* \"#utility.yul\":8828:9337   */\n      swap3\n      swap2\n      pop\n      pop\n      jump\t// out\n        /* \"#utility.yul\":9343:9997   */\n    tag_24:\n        /* \"#utility.yul\":9421:9427   */\n      0x00\n        /* \"#utility.yul\":9429:9435   */\n      dup1\n        /* \"#utility.yul\":9478:9480   */\n      0x40\n        /* \"#utility.yul\":9466:9475   */\n      dup4\n        /* \"#utility.yul\":9457:9464   */\n      dup6\n        /* \"#utility.yul\":9453:9476   */\n      sub\n        /* \"#utility.yul\":9449:9481   */\n      slt\n        /* \"#utility.yul\":9446:9565   */\n      iszero\n      tag_234\n      jumpi\n        /* \"#utility.yul\":9484:9563   */\n      tag_235\n      tag_89\n      jump\t// in\n    tag_235:\n        /* \"#utility.yul\":9446:9565   */\n    tag_234:\n        /* \"#utility.yul\":9604:9605   */\n      0x00\n        /* \"#utility.yul\":9629:9682   */\n      tag_236\n        /* \"#utility.yul\":9674:9681   */\n      dup6\n        /* \"#utility.yul\":9665:9671   */\n      dup3\n        /* \"#utility.yul\":9654:9663   */\n      dup7\n        /* \"#utility.yul\":9650:9672   */\n      add\n        /* \"#utility.yul\":9629:9682   */\n      tag_93\n      jump\t// in\n    tag_236:\n        /* \"#utility.yul\":9619:9682   */\n      swap3\n      pop\n        /* \"#utility.yul\":9575:9692   */\n      pop\n        /* \"#utility.yul\":9759:9761   */\n      0x20\n        /* \"#utility.yul\":9748:9757   */\n      dup4\n        /* \"#utility.yul\":9744:9762   */\n      add\n        /* \"#utility.yul\":9731:9763   */\n      calldataload\n        /* \"#utility.yul\":9790:9808   */\n      0xffffffffffffffff\n        /* \"#utility.yul\":9782:9788   */\n      dup2\n        /* \"#utility.yul\":9779:9809   */\n      gt\n        /* \"#utility.yul\":9776:9893   */\n      iszero\n      tag_237\n      jumpi\n        /* \"#utility.yul\":9812:9891   */\n      tag_238\n      tag_90\n      jump\t// in\n    tag_238:\n        /* \"#utility.yul\":9776:9893   */\n    tag_237:\n        /* \"#utility.yul\":9917:9980   */\n      tag_239\n        /* \"#utility.yul\":9972:9979   */\n      dup6\n        /* \"#utility.yul\":9963:9969   */\n      dup3\n        /* \"#utility.yul\":9952:9961   */\n      dup7\n        /* \"#utility.yul\":9948:9970   */\n      add\n        /* \"#utility.yul\":9917:9980   */\n      tag_120\n      jump\t// in\n    tag_239:\n        /* \"#utility.yul\":9907:9980   */\n      swap2\n      pop\n        /* \"#utility.yul\":9702:9990   */\n      pop\n        /* \"#utility.yul\":9343:9997   */\n      swap3\n      pop\n      swap3\n      swap1\n      pop\n      jump\t// out\n        /* \"#utility.yul\":10003:10183   */\n    tag_121:\n        /* \"#utility.yul\":10051:10128   */\n      0x4e487b7100000000000000000000000000000000000000000000000000000000\n        /* \"#utility.yul\":10048:10049   */\n      0x00\n        /* \"#utility.yul\":10041:10129   */\n      mstore\n        /* \"#utility.yul\":10148:10152   */\n      0x22\n        /* \"#utility.yul\":10145:10146   */\n      0x04\n        /* \"#utility.yul\":10138:10153   */\n      mstore\n        /* \"#utility.yul\":10172:10176   */\n      0x24\n        /* \"#utility.yul\":10169:10170   */\n      0x00\n        /* \"#utility.yul\":10162:10177   */\n      revert\n        /* \"#utility.yul\":10189:10509   */\n    tag_32:\n        /* \"#utility.yul\":10233:10239   */\n      0x00\n        /* \"#utility.yul\":10270:10271   */\n      0x02\n        /* \"#utility.yul\":10264:10268   */\n      dup3\n        /* \"#utility.yul\":10260:10272   */\n      div\n        /* \"#utility.yul\":10250:10272   */\n      swap1\n      pop\n        /* \"#utility.yul\":10317:10318   */\n      0x01\n        /* \"#utility.yul\":10311:10315   */\n      dup3\n        /* \"#utility.yul\":10307:10319   */\n      and\n        /* \"#utility.yul\":10338:10356   */\n      dup1\n        /* \"#utility.yul\":10328:10409   */\n      tag_242\n      jumpi\n        /* \"#utility.yul\":10394:10398   */\n      0x7f\n        /* \"#utility.yul\":10386:10392   */\n      dup3\n        /* \"#utility.yul\":10382:10399   */\n      and\n        /* \"#utility.yul\":10372:10399   */\n      swap2\n      pop\n        /* \"#utility.yul\":10328:10409   */\n    tag_242:\n        /* \"#utility.yul\":10456:10458   */\n      0x20\n        /* \"#utility.yul\":10448:10454   */\n      dup3\n        /* \"#utility.yul\":10445:10459   */\n      lt\n        /* \"#utility.yul\":10425:10443   */\n      dup2\n        /* \"#utility.yul\":10422:10460   */\n      sub\n        /* \"#utility.yul\":10419:10503   */\n      tag_243\n      jumpi\n        /* \"#utility.yul\":10475:10493   */\n      tag_244\n      tag_121\n      jump\t// in\n    tag_244:\n        /* \"#utility.yul\":10419:10503   */\n    tag_243:\n        /* \"#utility.yul\":10240:10509   */\n      pop\n        /* \"#utility.yul\":10189:10509   */\n      swap2\n      swap1\n      pop\n      jump\t// out\n        /* \"#utility.yul\":10515:10656   */\n    tag_122:\n        /* \"#utility.yul\":10564:10568   */\n      0x00\n        /* \"#utility.yul\":10587:10590   */\n      dup2\n        /* \"#utility.yul\":10579:10590   */\n      swap1\n      pop\n        /* \"#utility.yul\":10610:10613   */\n      dup2\n        /* \"#utility.yul\":10607:10608   */\n      0x00\n        /* \"#utility.yul\":10600:10614   */\n      mstore\n        /* \"#utility.yul\":10644:10648   */\n      0x20\n        /* \"#utility.yul\":10641:10642   */\n      0x00\n        /* \"#utility.yul\":10631:10649   */\n      keccak256\n        /* \"#utility.yul\":10623:10649   */\n      swap1\n      pop\n        /* \"#utility.yul\":10515:10656   */\n      swap2\n      swap1\n      pop\n      jump\t// out\n        /* \"#utility.yul\":10662:10755   */\n    tag_123:\n        /* \"#utility.yul\":10699:10705   */\n      0x00\n        /* \"#utility.yul\":10746:10748   */\n      0x20\n        /* \"#utility.yul\":10741:10743   */\n      0x1f\n        /* \"#utility.yul\":10734:10739   */\n      dup4\n        /* \"#utility.yul\":10730:10744   */\n      add\n        /* \"#utility.yul\":10726:10749   */\n      div\n        /* \"#utility.yul\":10716:10749   */\n      swap1\n      pop\n        /* \"#utility.yul\":10662:10755   */\n      swap2\n      swap1\n      pop\n      jump\t// out\n        /* \"#utility.yul\":10761:10868   */\n    tag_124:\n        /* \"#utility.yul\":10805:10813   */\n      0x00\n        /* \"#utility.yul\":10855:10860   */\n      dup3\n        /* \"#utility.yul\":10849:10853   */\n      dup3\n        /* \"#utility.yul\":10845:10861   */\n      shl\n        /* \"#utility.yul\":10824:10861   */\n      swap1\n      pop\n        /* \"#utility.yul\":10761:10868   */\n      swap3\n      swap2\n      pop\n      pop\n      jump\t// out\n        /* \"#utility.yul\":10874:11267   */\n    tag_125:\n        /* \"#utility.yul\":10943:10949   */\n      0x00\n        /* \"#utility.yul\":10993:10994   */\n      0x08\n        /* \"#utility.yul\":10981:10991   */\n      dup4\n        /* \"#utility.yul\":10977:10995   */\n      mul\n        /* \"#utility.yul\":11016:11113   */\n      tag_249\n        /* \"#utility.yul\":11046:11112   */\n      0xffffffffffffffffffffffffffffffffffffffffffffffffffffffffffffffff\n        /* \"#utility.yul\":11035:11044   */\n      dup3\n        /* \"#utility.yul\":11016:11113   */\n      tag_124\n      jump\t// in\n    tag_249:\n        /* \"#utility.yul\":11134:11173   */\n      tag_250\n        /* \"#utility.yul\":11164:11172   */\n      dup7\n        /* \"#utility.yul\":11153:11162   */\n      dup4\n        /* \"#utility.yul\":11134:11173   */\n      tag_124\n      jump\t// in\n    tag_250:\n        /* \"#utility.yul\":11122:11173   */\n      swap6\n      pop\n        /* \"#utility.yul\":11206:11210   */\n      dup1\n        /* \"#utility.yul\":11202:11211   */\n      not\n        /* \"#utility.yul\":11195:11200   */\n      dup5\n        /* \"#utility.yul\":11191:11212   */\n      and\n        /* \"#utility.yul\":11182:11212   */\n      swap4\n      pop\n        /* \"#utility.yul\":11255:11259   */\n      dup1\n        /* \"#utility.yul\":11245:11253   */\n      dup7\n        /* \"#utility.yul\":11241:11260   */\n      and\n        /* \"#utility.yul\":11234:11239   */\n      dup5\n        /* \"#utility.yul\":11231:11261   */\n      or\n        /* \"#utility.yul\":11221:11261   */\n      swap3\n      pop\n        /* \"#utility.yul\":10950:11267   */\n      pop\n      pop\n        /* \"#utility.yul\":10874:11267   */\n      swap4\n      swap3\n      pop\n      pop\n      pop\n      jump\t// out\n        /* \"#utility.yul\":11273:11333   */\n    tag_126:\n        /* \"#utility.yul\":11301:11304   */\n      0x00\n        /* \"#utility.yul\":11322:11327   */\n      dup2\n        /* \"#utility.yul\":11315:11327   */\n      swap1\n      pop\n        /* \"#utility.yul\":11273:11333   */\n      swap2\n      swap1\n      pop\n      jump\t// out\n        /* \"#utility.yul\":11339:11481   */\n    tag_127:\n        /* \"#utility.yul\":11389:11398   */\n      0x00\n        /* \"#utility.yul\":11422:11475   */\n      tag_253\n        /* \"#utility.yul\":11440:11474   */\n      tag_254\n        /* \"#utility.yul\":11449:11473   */\n      tag_255\n        /* \"#utility.yul\":11467:11472   */\n      dup5\n        /* \"#utility.yul\":11449:11473   */\n      tag_91\n      jump\t// in\n    tag_255:\n        /* \"#utility.yul\":11440:11474   */\n      tag_126\n      jump\t// in\n    tag_254:\n        /* \"#utility.yul\":11422:11475   */\n      tag_91\n      jump\t// in\n    tag_253:\n        /* \"#utility.yul\":11409:11475   */\n      swap1\n      pop\n        /* \"#utility.yul\":11339:11481   */\n      swap2\n      swap1\n      pop\n      jump\t// out\n        /* \"#utility.yul\":11487:11562   */\n    tag_128:\n        /* \"#utility.yul\":11530:11533   */\n      0x00\n        /* \"#utility.yul\":11551:11556   */\n      dup2\n        /* \"#utility.yul\":11544:11556   */\n      swap1\n      pop\n        /* \"#utility.yul\":11487:11562   */\n      swap2\n      swap1\n      pop\n      jump\t// out\n        /* \"#utility.yul\":11568:11837   */\n    tag_129:\n        /* \"#utility.yul\":11678:11717   */\n      tag_258\n        /* \"#utility.yul\":11709:11716   */\n      dup4\n        /* \"#utility.yul\":11678:11717   */\n      tag_127\n      jump\t// in\n    tag_258:\n        /* \"#utility.yul\":11739:11830   */\n      tag_259\n        /* \"#utility.yul\":11788:11829   */\n      tag_260\n        /* \"#utility.yul\":11812:11828   */\n      dup3\n        /* \"#utility.yul\":11788:11829   */\n      tag_128\n      jump\t// in\n    tag_260:\n        /* \"#utility.yul\":11780:11786   */\n      dup5\n        /* \"#utility.yul\":11773:11777   */\n      dup5\n        /* \"#utility.yul\":11767:11778   */\n      sload\n        /* \"#utility.yul\":11739:11830   */\n      tag_125\n      jump\t// in\n    tag_259:\n        /* \"#utility.yul\":11733:11737   */\n      dup3\n        /* \"#utility.yul\":11726:11831   */\n      sstore\n        /* \"#utility.yul\":11644:11837   */\n      pop\n        /* \"#utility.yul\":11568:11837   */\n      pop\n      pop\n      pop\n      jump\t// out\n        /* \"#utility.yul\":11843:11916   */\n    tag_130:\n        /* \"#utility.yul\":11888:11891   */\n      0x00\n        /* \"#utility.yul\":11843:11916   */\n      swap1\n      jump\t// out\n        /* \"#utility.yul\":11922:12111   */\n    tag_131:\n        /* \"#utility.yul\":11999:12031   */\n      tag_263\n      tag_130\n      jump\t// in\n    tag_263:\n        /* \"#utility.yul\":12040:12105   */\n      tag_264\n        /* \"#utility.yul\":12098:12104   */\n      dup2\n        /* \"#utility.yul\":12090:12096   */\n      dup5\n        /* \"#utility.yul\":12084:12088   */\n      dup5\n        /* \"#utility.yul\":12040:12105   */\n      tag_129\n      jump\t// in\n    tag_264:\n        /* \"#utility.yul\":11975:12111   */\n      pop\n        /* \"#utility.yul\":11922:12111   */\n      pop\n      pop\n      jump\t// out\n        /* \"#utility.yul\":12117:12303   */\n    tag_132:\n        /* \"#utility.yul\":12177:12297   */\n    tag_266:\n        /* \"#utility.yul\":12194:12197   */\n      dup2\n        /* \"#utility.yul\":12187:12192   */\n      dup2\n        /* \"#utility.yul\":12184:12198   */\n      lt\n        /* \"#utility.yul\":12177:12297   */\n      iszero\n      tag_268\n      jumpi\n        /* \"#utility.yul\":12248:12287   */\n      tag_269\n        /* \"#utility.yul\":12285:12286   */\n      0x00\n        /* \"#utility.yul\":12278:12283   */\n      dup3\n        /* \"#utility.yul\":12248:12287   */\n      tag_131\n      jump\t// in\n    tag_269:\n        /* \"#utility.yul\":12221:12222   */\n      0x01\n        /* \"#utility.yul\":12214:12219   */\n      dup2\n        /* \"#utility.yul\":12210:12223   */\n      add\n        /* \"#utility.yul\":12201:12223   */\n      swap1\n      pop\n        /* \"#utility.yul\":12177:12297   */\n      jump(tag_266)\n    tag_268:\n        /* \"#utility.yul\":12117:12303   */\n      pop\n      pop\n      jump\t// out\n        /* \"#utility.yul\":12309:12852   */\n    tag_133:\n        /* \"#utility.yul\":12410:12412   */\n      0x1f\n        /* \"#utility.yul\":12405:12408   */\n      dup3\n        /* \"#utility.yul\":12402:12413   */\n      gt\n        /* \"#utility.yul\":12399:12845   */\n      iszero\n      tag_271\n      jumpi\n        /* \"#utility.yul\":12444:12482   */\n      tag_272\n        /* \"#utility.yul\":12476:12481   */\n      dup2\n        /* \"#utility.yul\":12444:12482   */\n      tag_122\n      jump\t// in\n    tag_272:\n        /* \"#utility.yul\":12528:12557   */\n      tag_273\n        /* \"#utility.yul\":12546:12556   */\n      dup5\n        /* \"#utility.yul\":12528:12557   */\n      tag_123\n      jump\t// in\n    tag_273:\n        /* \"#utility.yul\":12518:12526   */\n      dup2\n        /* \"#utility.yul\":12514:12558   */\n      add\n        /* \"#utility.yul\":12711:12713   */\n      0x20\n        /* \"#utility.yul\":12699:12709   */\n      dup6\n        /* \"#utility.yul\":12696:12714   */\n      lt\n        /* \"#utility.yul\":12693:12742   */\n      iszero\n      tag_274\n      jumpi\n        /* \"#utility.yul\":12732:12740   */\n      dup2\n        /* \"#utility.yul\":12717:12740   */\n      swap1\n      pop\n        /* \"#utility.yul\":12693:12742   */\n    tag_274:\n        /* \"#utility.yul\":12755:12835   */\n      tag_275\n        /* \"#utility.yul\":12811:12833   */\n      tag_276\n        /* \"#utility.yul\":12829:12832   */\n      dup6\n        /* \"#utility.yul\":12811:12833   */\n      tag_123\n      jump\t// in\n    tag_276:\n        /* \"#utility.yul\":12801:12809   */\n      dup4\n        /* \"#utility.yul\":12797:12834   */\n      add\n        /* \"#utility.yul\":12784:12795   */\n      dup3\n        /* \"#utility.yul\":12755:12835   */\n      tag_132\n      jump\t// in\n    tag_275:\n        /* \"#utility.yul\":12414:12845   */\n      pop\n      pop\n        /* \"#utility.yul\":12399:12845   */\n    tag_271:\n        /* \"#utility.yul\":12309:12852   */\n      pop\n      pop\n      pop\n      jump\t// out\n        /* \"#utility.yul\":12858:12975   */\n    tag_134:\n        /* \"#utility.yul\":12912:12920   */\n      0x00\n        /* \"#utility.yul\":12962:12967   */\n      dup3\n        /* \"#utility.yul\":12956:12960   */\n      dup3\n        /* \"#utility.yul\":12952:12968   */\n      shr\n        /* \"#utility.yul\":12931:12968   */\n      swap1\n      pop\n        /* \"#utility.yul\":12858:12975   */\n      swap3\n      swap2\n      pop\n      pop\n      jump\t// out\n        /* \"#utility.yul\":12981:13150   */\n    tag_135:\n        /* \"#utility.yul\":13025:13031   */\n      0x00\n        /* \"#utility.yul\":13058:13109   */\n      tag_279\n        /* \"#utility.yul\":13106:13107   */\n      0x00\n        /* \"#utility.yul\":13102:13108   */\n      not\n        /* \"#utility.yul\":13094:13099   */\n      dup5\n        /* \"#utility.yul\":13091:13092   */\n      0x08\n        /* \"#utility.yul\":13087:13100   */\n      mul\n        /* \"#utility.yul\":13058:13109   */\n      tag_134\n      jump\t// in\n    tag_279:\n        /* \"#utility.yul\":13054:13110   */\n      not\n        /* \"#utility.yul\":13139:13143   */\n      dup1\n        /* \"#utility.yul\":13133:13137   */\n      dup4\n        /* \"#utility.yul\":13129:13144   */\n      and\n        /* \"#utility.yul\":13119:13144   */\n      swap2\n      pop\n        /* \"#utility.yul\":13032:13150   */\n      pop\n        /* \"#utility.yul\":12981:13150   */\n      swap3\n      swap2\n      pop\n      pop\n      jump\t// out\n        /* \"#utility.yul\":13155:13450   */\n    tag_136:\n        /* \"#utility.yul\":13231:13235   */\n      0x00\n        /* \"#utility.yul\":13377:13406   */\n      tag_281\n        /* \"#utility.yul\":13402:13405   */\n      dup4\n        /* \"#utility.yul\":13396:13400   */\n      dup4\n        /* \"#utility.yul\":13377:13406   */\n      tag_135\n      jump\t// in\n    tag_281:\n        /* \"#utility.yul\":13369:13406   */\n      swap2\n      pop\n        /* \"#utility.yul\":13439:13442   */\n      dup3\n        /* \"#utility.yul\":13436:13437   */\n      0x02\n        /* \"#utility.yul\":13432:13443   */\n      mul\n        /* \"#utility.yul\":13426:13430   */\n      dup3\n        /* \"#utility.yul\":13423:13444   */\n      or\n        /* \"#utility.yul\":13415:13444   */\n      swap1\n      pop\n        /* \"#utility.yul\":13155:13450   */\n      swap3\n      swap2\n      pop\n      pop\n      jump\t// out\n        /* \"#utility.yul\":13455:14850   */\n    tag_49:\n        /* \"#utility.yul\":13572:13609   */\n      tag_283\n        /* \"#utility.yul\":13605:13608   */\n      dup3\n        /* \"#utility.yul\":13572:13609   */\n      tag_94\n      jump\t// in\n    tag_283:\n        /* \"#utility.yul\":13674:13692   */\n      0xffffffffffffffff\n        /* \"#utility.yul\":13666:13672   */\n      dup2\n        /* \"#utility.yul\":13663:13693   */\n      gt\n        /* \"#utility.yul\":13660:13716   */\n      iszero\n      tag_284\n      jumpi\n        /* \"#utility.yul\":13696:13714   */\n      tag_285\n      tag_114\n      jump\t// in\n    tag_285:\n        /* \"#utility.yul\":13660:13716   */\n    tag_284:\n        /* \"#utility.yul\":13740:13778   */\n      tag_286\n        /* \"#utility.yul\":13772:13776   */\n      dup3\n        /* \"#utility.yul\":13766:13777   */\n      sload\n        /* \"#utility.yul\":13740:13778   */\n      tag_32\n      jump\t// in\n    tag_286:\n        /* \"#utility.yul\":13825:13892   */\n      tag_287\n        /* \"#utility.yul\":13885:13891   */\n      dup3\n        /* \"#utility.yul\":13877:13883   */\n      dup3\n        /* \"#utility.yul\":13871:13875   */\n      dup6\n        /* \"#utility.yul\":13825:13892   */\n      tag_133\n      jump\t// in\n    tag_287:\n        /* \"#utility.yul\":13919:13920   */\n      0x00\n        /* \"#utility.yul\":13943:13947   */\n      0x20\n        /* \"#utility.yul\":13930:13947   */\n      swap1\n      pop\n        /* \"#utility.yul\":13975:13977   */\n      0x1f\n        /* \"#utility.yul\":13967:13973   */\n      dup4\n        /* \"#utility.yul\":13964:13978   */\n      gt\n        /* \"#utility.yul\":13992:13993   */\n      0x01\n        /* \"#utility.yul\":13987:14605   */\n      dup2\n      eq\n      tag_289\n      jumpi\n        /* \"#utility.yul\":14649:14650   */\n      0x00\n        /* \"#utility.yul\":14666:14672   */\n      dup5\n        /* \"#utility.yul\":14663:14740   */\n      iszero\n      tag_290\n      jumpi\n        /* \"#utility.yul\":14715:14724   */\n      dup3\n        /* \"#utility.yul\":14710:14713   */\n      dup8\n        /* \"#utility.yul\":14706:14725   */\n      add\n        /* \"#utility.yul\":14700:14726   */\n      mload\n        /* \"#utility.yul\":14691:14726   */\n      swap1\n      pop\n        /* \"#utility.yul\":14663:14740   */\n    tag_290:\n        /* \"#utility.yul\":14766:14833   */\n      tag_291\n        /* \"#utility.yul\":14826:14832   */\n      dup6\n        /* \"#utility.yul\":14819:14824   */\n      dup3\n        /* \"#utility.yul\":14766:14833   */\n      tag_136\n      jump\t// in\n    tag_291:\n        /* \"#utility.yul\":14760:14764   */\n      dup7\n        /* \"#utility.yul\":14753:14834   */\n      sstore\n        /* \"#utility.yul\":14622:14844   */\n      pop\n        /* \"#utility.yul\":13957:14844   */\n      jump(tag_288)\n        /* \"#utility.yul\":13987:14605   */\n    tag_289:\n        /* \"#utility.yul\":14039:14043   */\n      0x1f\n        /* \"#utility.yul\":14035:14044   */\n      not\n        /* \"#utility.yul\":14027:14033   */\n      dup5\n        /* \"#utility.yul\":14023:14045   */\n      and\n        /* \"#utility.yul\":14073:14110   */\n      tag_292\n        /* \"#utility.yul\":14105:14109   */\n      dup7\n        /* \"#utility.yul\":14073:14110   */\n      tag_122\n      jump\t// in\n    tag_292:\n        /* \"#utility.yul\":14132:14133   */\n      0x00\n        /* \"#utility.yul\":14146:14354   */\n    tag_293:\n        /* \"#utility.yul\":14160:14167   */\n      dup3\n        /* \"#utility.yul\":14157:14158   */\n      dup2\n        /* \"#utility.yul\":14154:14168   */\n      lt\n        /* \"#utility.yul\":14146:14354   */\n      iszero\n      tag_295\n      jumpi\n        /* \"#utility.yul\":14239:14248   */\n      dup5\n        /* \"#utility.yul\":14234:14237   */\n      dup10\n        /* \"#utility.yul\":14230:14249   */\n      add\n        /* \"#utility.yul\":14224:14250   */\n      mload\n        /* \"#utility.yul\":14216:14222   */\n      dup3\n        /* \"#utility.yul\":14209:14251   */\n      sstore\n        /* \"#utility.yul\":14290:14291   */\n      0x01\n        /* \"#utility.yul\":14282:14288   */\n      dup3\n        /* \"#utility.yul\":14278:14292   */\n      add\n        /* \"#utility.yul\":14268:14292   */\n      swap2\n      pop\n        /* \"#utility.yul\":14337:14339   */\n      0x20\n        /* \"#utility.yul\":14326:14335   */\n      dup6\n        /* \"#utility.yul\":14322:14340   */\n      add\n        /* \"#utility.yul\":14309:14340   */\n      swap5\n      pop\n        /* \"#utility.yul\":14183:14187   */\n      0x20\n        /* \"#utility.yul\":14180:14181   */\n      dup2\n        /* \"#utility.yul\":14176:14188   */\n      add\n        /* \"#utility.yul\":14171:14188   */\n      swap1\n      pop\n        /* \"#utility.yul\":14146:14354   */\n      jump(tag_293)\n    tag_295:\n        /* \"#utility.yul\":14382:14388   */\n      dup7\n        /* \"#utility.yul\":14373:14380   */\n      dup4\n        /* \"#utility.yul\":14370:14389   */\n      lt\n        /* \"#utility.yul\":14367:14546   */\n      iszero\n      tag_296\n      jumpi\n        /* \"#utility.yul\":14440:14449   */\n      dup5\n        /* \"#utility.yul\":14435:14438   */\n      dup10\n        /* \"#utility.yul\":14431:14450   */\n      add\n        /* \"#utility.yul\":14425:14451   */\n      mload\n        /* \"#utility.yul\":14483:14531   */\n      tag_297\n        /* \"#utility.yul\":14525:14529   */\n      0x1f\n        /* \"#utility.yul\":14517:14523   */\n      dup10\n        /* \"#utility.yul\":14513:14530   */\n      and\n        /* \"#utility.yul\":14502:14511   */\n      dup3\n        /* \"#utility.yul\":14483:14531   */\n      tag_135\n      jump\t// in\n    tag_297:\n        /* \"#utility.yul\":14475:14481   */\n      dup4\n        /* \"#utility.yul\":14468:14532   */\n      sstore\n        /* \"#utility.yul\":14390:14546   */\n      pop\n        /* \"#utility.yul\":14367:14546   */\n    tag_296:\n        /* \"#utility.yul\":14592:14593   */\n      0x01\n        /* \"#utility.yul\":14588:14589   */\n      0x02\n        /* \"#utility.yul\":14580:14586   */\n      dup9\n        /* \"#utility.yul\":14576:14590   */\n      mul\n        /* \"#utility.yul\":14572:14594   */\n      add\n        /* \"#utility.yul\":14566:14570   */\n      dup9\n        /* \"#utility.yul\":14559:14595   */\n      sstore\n        /* \"#utility.yul\":13994:14605   */\n      pop\n      pop\n      pop\n        /* \"#utility.yul\":13957:14844   */\n    tag_288:\n      pop\n        /* \"#utility.yul\":13547:14850   */\n      pop\n      pop\n      pop\n        /* \"#utility.yul\":13455:14850   */\n      pop\n      pop\n      jump\t// out\n        /* \"#utility.yul\":14856:15036   */\n    tag_53:\n        /* \"#utility.yul\":14904:14981   */\n      0x4e487b7100000000000000000000000000000000000000000000000000000000\n        /* \"#utility.yul\":14901:14902   */\n      0x00\n        /* \"#utility.yul\":14894:14982   */\n      mstore\n        /* \"#utility.yul\":15001:15005   */\n      0x32\n        /* \"#utility.yul\":14998:14999   */\n      0x04\n        /* \"#utility.yul\":14991:15006   */\n      mstore\n        /* \"#utility.yul\":15025:15029   */\n      0x24\n        /* \"#utility.yul\":15022:15023   */\n      0x00\n        /* \"#utility.yul\":15015:15030   */\n      revert\n        /* \"#utility.yul\":15042:15222   */\n    tag_137:\n        /* \"#utility.yul\":15090:15167   */\n      0x4e487b7100000000000000000000000000000000000000000000000000000000\n        /* \"#utility.yul\":15087:15088   */\n      0x00\n        /* \"#utility.yul\":15080:15168   */\n      mstore\n        /* \"#utility.yul\":15187:15191   */\n      0x11\n        /* \"#utility.yul\":15184:15185   */\n      0x04\n        /* \"#utility.yul\":15177:15192   */\n      mstore\n        /* \"#utility.yul\":15211:15215   */\n      0x24\n        /* \"#utility.yul\":15208:15209   */\n      0x00\n        /* \"#utility.yul\":15201:15216   */\n      revert\n        /* \"#utility.yul\":15228:15419   */\n    tag_66:\n        /* \"#utility.yul\":15268:15272   */\n      0x00\n        /* \"#utility.yul\":15288:15308   */\n      tag_301\n        /* \"#utility.yul\":15306:15307   */\n      dup3\n        /* \"#utility.yul\":15288:15308   */\n      tag_91\n      jump\t// in\n    tag_301:\n        /* \"#utility.yul\":15283:15308   */\n      swap2\n      pop\n        /* \"#utility.yul\":15322:15342   */\n      tag_302\n        /* \"#utility.yul\":15340:15341   */\n      dup4\n        /* \"#utility.yul\":15322:15342   */\n      tag_91\n      jump\t// in\n    tag_302:\n        /* \"#utility.yul\":15317:15342   */\n      swap3\n      pop\n        /* \"#utility.yul\":15361:15362   */\n      dup3\n        /* \"#utility.yul\":15358:15359   */\n      dup3\n        /* \"#utility.yul\":15355:15363   */\n      lt\n        /* \"#utility.yul\":15352:15386   */\n      iszero\n      tag_303\n      jumpi\n        /* \"#utility.yul\":15366:15384   */\n      tag_304\n      tag_137\n      jump\t// in\n    tag_304:\n        /* \"#utility.yul\":15352:15386   */\n    tag_303:\n        /* \"#utility.yul\":15411:15412   */\n      dup3\n        /* \"#utility.yul\":15408:15409   */\n      dup3\n        /* \"#utility.yul\":15404:15413   */\n      sub\n        /* \"#utility.yul\":15396:15413   */\n      swap1\n      pop\n        /* \"#utility.yul\":15228:15419   */\n      swap3\n      swap2\n      pop\n      pop\n      jump\t// out\n        /* \"#utility.yul\":15425:15574   */\n    tag_138:\n        /* \"#utility.yul\":15474:15480   */\n      0x00\n        /* \"#utility.yul\":15508:15513   */\n      dup2\n        /* \"#utility.yul\":15502:15514   */\n      sload\n        /* \"#utility.yul\":15492:15514   */\n      swap1\n      pop\n        /* \"#utility.yul\":15534:15567   */\n      tag_306\n        /* \"#utility.yul\":15560:15566   */\n      dup2\n        /* \"#utility.yul\":15534:15567   */\n      tag_32\n      jump\t// in\n    tag_306:\n        /* \"#utility.yul\":15524:15567   */\n      swap1\n      pop\n        /* \"#utility.yul\":15425:15574   */\n      swap2\n      swap1\n      pop\n      jump\t// out\n        /* \"#utility.yul\":15580:17031   */\n    tag_74:\n        /* \"#utility.yul\":15691:15694   */\n      dup2\n        /* \"#utility.yul\":15685:15689   */\n      dup2\n        /* \"#utility.yul\":15682:15695   */\n      sub\n        /* \"#utility.yul\":15679:15705   */\n      tag_308\n      jumpi\n        /* \"#utility.yul\":15698:15703   */\n      pop\n      pop\n      jump(tag_307)\n        /* \"#utility.yul\":15679:15705   */\n    tag_308:\n        /* \"#utility.yul\":15729:15763   */\n      tag_309\n        /* \"#utility.yul\":15759:15762   */\n      dup3\n        /* \"#utility.yul\":15729:15763   */\n      tag_138\n      jump\t// in\n    tag_309:\n        /* \"#utility.yul\":15828:15846   */\n      0xffffffffffffffff\n        /* \"#utility.yul\":15820:15826   */\n      dup2\n        /* \"#utility.yul\":15817:15847   */\n      gt\n        /* \"#utility.yul\":15814:15870   */\n      iszero\n      tag_310\n      jumpi\n        /* \"#utility.yul\":15850:15868   */\n      tag_311\n      tag_114\n      jump\t// in\n    tag_311:\n        /* \"#utility.yul\":15814:15870   */\n    tag_310:\n        /* \"#utility.yul\":15894:15932   */\n      tag_312\n        /* \"#utility.yul\":15926:15930   */\n      dup3\n        /* \"#utility.yul\":15920:15931   */\n      sload\n        /* \"#utility.yul\":15894:15932   */\n      tag_32\n      jump\t// in\n    tag_312:\n        /* \"#utility.yul\":15979:16046   */\n      tag_313\n        /* \"#utility.yul\":16039:16045   */\n      dup3\n        /* \"#utility.yul\":16031:16037   */\n      dup3\n        /* \"#utility.yul\":16025:16029   */\n      dup6\n        /* \"#utility.yul\":15979:16046   */\n      tag_133\n      jump\t// in\n    tag_313:\n        /* \"#utility.yul\":16073:16074   */\n      0x00\n        /* \"#utility.yul\":16102:16104   */\n      0x1f\n        /* \"#utility.yul\":16094:16100   */\n      dup4\n        /* \"#utility.yul\":16091:16105   */\n      gt\n        /* \"#utility.yul\":16119:16120   */\n      0x01\n        /* \"#utility.yul\":16114:16786   */\n      dup2\n      eq\n      tag_315\n      jumpi\n        /* \"#utility.yul\":16830:16831   */\n      0x00\n        /* \"#utility.yul\":16847:16853   */\n      dup5\n        /* \"#utility.yul\":16844:16921   */\n      iszero\n      tag_316\n      jumpi\n        /* \"#utility.yul\":16896:16905   */\n      dup3\n        /* \"#utility.yul\":16891:16894   */\n      dup8\n        /* \"#utility.yul\":16887:16906   */\n      add\n        /* \"#utility.yul\":16881:16907   */\n      sload\n        /* \"#utility.yul\":16872:16907   */\n      swap1\n      pop\n        /* \"#utility.yul\":16844:16921   */\n    tag_316:\n        /* \"#utility.yul\":16947:17014   */\n      tag_317\n        /* \"#utility.yul\":17007:17013   */\n      dup6\n        /* \"#utility.yul\":17000:17005   */\n      dup3\n        /* \"#utility.yul\":16947:17014   */\n      tag_136\n      jump\t// in\n    tag_317:\n        /* \"#utility.yul\":16941:16945   */\n      dup7\n        /* \"#utility.yul\":16934:17015   */\n      sstore\n        /* \"#utility.yul\":16803:17025   */\n      pop\n        /* \"#utility.yul\":16084:17025   */\n      jump(tag_314)\n        /* \"#utility.yul\":16114:16786   */\n    tag_315:\n        /* \"#utility.yul\":16166:16170   */\n      0x1f\n        /* \"#utility.yul\":16162:16171   */\n      not\n        /* \"#utility.yul\":16154:16160   */\n      dup5\n        /* \"#utility.yul\":16150:16172   */\n      and\n        /* \"#utility.yul\":16192:16228   */\n      tag_318\n        /* \"#utility.yul\":16224:16227   */\n      dup8\n        /* \"#utility.yul\":16192:16228   */\n      tag_122\n      jump\t// in\n    tag_318:\n        /* \"#utility.yul\":16185:16228   */\n      swap7\n      pop\n        /* \"#utility.yul\":16255:16292   */\n      tag_319\n        /* \"#utility.yul\":16287:16291   */\n      dup7\n        /* \"#utility.yul\":16255:16292   */\n      tag_122\n      jump\t// in\n    tag_319:\n        /* \"#utility.yul\":16314:16315   */\n      0x00\n        /* \"#utility.yul\":16328:16535   */\n    tag_320:\n        /* \"#utility.yul\":16342:16349   */\n      dup3\n        /* \"#utility.yul\":16339:16340   */\n      dup2\n        /* \"#utility.yul\":16336:16350   */\n      lt\n        /* \"#utility.yul\":16328:16535   */\n      iszero\n      tag_322\n      jumpi\n        /* \"#utility.yul\":16421:16430   */\n      dup5\n        /* \"#utility.yul\":16416:16419   */\n      dup10\n        /* \"#utility.yul\":16412:16431   */\n      add\n        /* \"#utility.yul\":16406:16432   */\n      sload\n        /* \"#utility.yul\":16398:16404   */\n      dup3\n        /* \"#utility.yul\":16391:16433   */\n      sstore\n        /* \"#utility.yul\":16472:16473   */\n      0x01\n        /* \"#utility.yul\":16464:16470   */\n      dup3\n        /* \"#utility.yul\":16460:16474   */\n      add\n        /* \"#utility.yul\":16450:16474   */\n      swap2\n      pop\n        /* \"#utility.yul\":16519:16520   */\n      0x01\n        /* \"#utility.yul\":16508:16517   */\n      dup6\n        /* \"#utility.yul\":16504:16521   */\n      add\n        /* \"#utility.yul\":16491:16521   */\n      swap5\n      pop\n        /* \"#utility.yul\":16365:16369   */\n      0x20\n        /* \"#utility.yul\":16362:16363   */\n      dup2\n        /* \"#utility.yul\":16358:16370   */\n      add\n        /* \"#utility.yul\":16353:16370   */\n      swap1\n      pop\n        /* \"#utility.yul\":16328:16535   */\n      jump(tag_320)\n    tag_322:\n        /* \"#utility.yul\":16563:16569   */\n      dup7\n        /* \"#utility.yul\":16554:16561   */\n      dup4\n        /* \"#utility.yul\":16551:16570   */\n      lt\n        /* \"#utility.yul\":16548:16727   */\n      iszero\n      tag_323\n      jumpi\n        /* \"#utility.yul\":16621:16630   */\n      dup5\n        /* \"#utility.yul\":16616:16619   */\n      dup10\n        /* \"#utility.yul\":16612:16631   */\n      add\n        /* \"#utility.yul\":16606:16632   */\n      sload\n        /* \"#utility.yul\":16664:16712   */\n      tag_324\n        /* \"#utility.yul\":16706:16710   */\n      0x1f\n        /* \"#utility.yul\":16698:16704   */\n      dup10\n        /* \"#utility.yul\":16694:16711   */\n      and\n        /* \"#utility.yul\":16683:16692   */\n      dup3\n        /* \"#utility.yul\":16664:16712   */\n      tag_135\n      jump\t// in\n    tag_324:\n        /* \"#utility.yul\":16656:16662   */\n      dup4\n        /* \"#utility.yul\":16649:16713   */\n      sstore\n        /* \"#utility.yul\":16571:16727   */\n      pop\n        /* \"#utility.yul\":16548:16727   */\n    tag_323:\n        /* \"#utility.yul\":16773:16774   */\n      0x01\n        /* \"#utility.yul\":16769:16770   */\n      0x02\n        /* \"#utility.yul\":16761:16767   */\n      dup9\n        /* \"#utility.yul\":16757:16771   */\n      mul\n        /* \"#utility.yul\":16753:16775   */\n      add\n        /* \"#utility.yul\":16747:16751   */\n      dup9\n        /* \"#utility.yul\":16740:16776   */\n      sstore\n        /* \"#utility.yul\":16121:16786   */\n      pop\n      pop\n      pop\n        /* \"#utility.yul\":16084:17025   */\n    tag_314:\n      pop\n        /* \"#utility.yul\":15669:17031   */\n      pop\n      pop\n      pop\n        /* \"#utility.yul\":15580:17031   */\n      pop\n      pop\n    tag_307:\n      jump\t// out\n        /* \"#utility.yul\":17037:17217   */\n    tag_77:\n        /* \"#utility.yul\":17085:17162   */\n      0x4e487b7100000000000000000000000000000000000000000000000000000000\n        /* \"#utility.yul\":17082:17083   */\n      0x00\n        /* \"#utility.yul\":17075:17163   */\n      mstore\n        /* \"#utility.yul\":17182:17186   */\n      0x31\n        /* \"#utility.yul\":17179:17180   */\n      0x04\n        /* \"#utility.yul\":17172:17187   */\n      mstore\n        /* \"#utility.yul\":17206:17210   */\n      0x24\n        /* \"#utility.yul\":17203:17204   */\n      0x00\n        /* \"#utility.yul\":17196:17211   */\n      revert\n\n    auxdata: 0xa264697066735822122001cbb9ee7d97a9e2569862c59a997a5709b615fe0e72d59dcee662628ea6aa6364736f6c634300080f0033\n}\n","bytecode":{"linkReferences":{},"object":"608060405234801561001057600080fd5b50611049806100206000396000f3fe608060405234801561001057600080fd5b50600436106100575760003560e01c80630d80fefd1461005c5780635ff6cbf31461008d5780636a226a49146100ab57806387f9b00a146100c7578063b888690a146100e3575b600080fd5b610076600480360381019061007191906106eb565b6100ff565b6040516100849291906107f2565b60405180910390f35b6100956101db565b6040516100a2919061097a565b60405180910390f35b6100c560048036038101906100c09190610ad1565b610322565b005b6100e160048036038101906100dc9190610b1a565b6103da565b005b6100fd60048036038101906100f891906106eb565b61048e565b005b6000818154811061010f57600080fd5b906000526020600020906002020160009150905080600001805461013290610ba5565b80601f016020809104026020016040519081016040528092919081815260200182805461015e90610ba5565b80156101ab5780601f10610180576101008083540402835291602001916101ab565b820191906000526020600020905b81548152906001019060200180831161018e57829003601f168201915b5050505050908060010160009054906101000a900473ffffffffffffffffffffffffffffffffffffffff16905082565b60606000805480602002602001604051908101604052809291908181526020016000905b82821015610319578382906000526020600020906002020160405180604001604052908160008201805461023290610ba5565b80601f016020809104026020016040519081016040528092919081815260200182805461025e90610ba5565b80156102ab5780601f10610280576101008083540402835291602001916102ab565b820191906000526020600020905b81548152906001019060200180831161028e57829003601f168201915b505050505081526020016001820160009054906101000a900473ffffffffffffffffffffffffffffffffffffffff1673ffffffffffffffffffffffffffffffffffffffff1673ffffffffffffffffffffffffffffffffffffffff1681525050815260200190600101906101ff565b50505050905090565b600060405180604001604052808381526020013373ffffffffffffffffffffffffffffffffffffffff168152509080600181540180825580915050600190039060005260206000209060020201600090919091909150600082015181600001908161038d9190610d82565b5060208201518160010160006101000a81548173ffffffffffffffffffffffffffffffffffffffff021916908373ffffffffffffffffffffffffffffffffffffffff160217905550505050565b3373ffffffffffffffffffffffffffffffffffffffff166000838154811061040557610404610e54565b5b906000526020600020906002020160010160009054906101000a900473ffffffffffffffffffffffffffffffffffffffff1673ffffffffffffffffffffffffffffffffffffffff161461045757600080fd5b806000838154811061046c5761046b610e54565b5b906000526020600020906002020160000190816104899190610d82565b505050565b3373ffffffffffffffffffffffffffffffffffffffff16600082815481106104b9576104b8610e54565b5b906000526020600020906002020160010160009054906101000a900473ffffffffffffffffffffffffffffffffffffffff1673ffffffffffffffffffffffffffffffffffffffff161461050b57600080fd5b6000600160008054905061051f9190610eb2565b815481106105305761052f610e54565b5b90600052602060002090600202016000828154811061055257610551610e54565b5b9060005260206000209060020201600082018160000190816105749190610efc565b506001820160009054906101000a900473ffffffffffffffffffffffffffffffffffffffff168160010160006101000a81548173ffffffffffffffffffffffffffffffffffffffff021916908373ffffffffffffffffffffffffffffffffffffffff16021790555090505060008054806105f1576105f0610fe4565b5b6001900381819060005260206000209060020201600080820160006106169190610644565b6001820160006101000a81549073ffffffffffffffffffffffffffffffffffffffff02191690555050905550565b50805461065090610ba5565b6000825580601f106106625750610681565b601f0160209004906000526020600020908101906106809190610684565b5b50565b5b8082111561069d576000816000905550600101610685565b5090565b6000604051905090565b600080fd5b600080fd5b6000819050919050565b6106c8816106b5565b81146106d357600080fd5b50565b6000813590506106e5816106bf565b92915050565b600060208284031215610701576107006106ab565b5b600061070f848285016106d6565b91505092915050565b600081519050919050565b600082825260208201905092915050565b60005b83811015610752578082015181840152602081019050610737565b83811115610761576000848401525b50505050565b6000601f19601f8301169050919050565b600061078382610718565b61078d8185610723565b935061079d818560208601610734565b6107a681610767565b840191505092915050565b600073ffffffffffffffffffffffffffffffffffffffff82169050919050565b60006107dc826107b1565b9050919050565b6107ec816107d1565b82525050565b6000604082019050818103600083015261080c8185610778565b905061081b60208301846107e3565b9392505050565b600081519050919050565b600082825260208201905092915050565b6000819050602082019050919050565b600082825260208201905092915050565b600061086a82610718565b610874818561084e565b9350610884818560208601610734565b61088d81610767565b840191505092915050565b6108a1816107d1565b82525050565b600060408301600083015184820360008601526108c4828261085f565b91505060208301516108d96020860182610898565b508091505092915050565b60006108f083836108a7565b905092915050565b6000602082019050919050565b600061091082610822565b61091a818561082d565b93508360208202850161092c8561083e565b8060005b85811015610968578484038952815161094985826108e4565b9450610954836108f8565b925060208a01995050600181019050610930565b50829750879550505050505092915050565b600060208201905081810360008301526109948184610905565b905092915050565b600080fd5b600080fd5b7f4e487b7100000000000000000000000000000000000000000000000000000000600052604160045260246000fd5b6109de82610767565b810181811067ffffffffffffffff821117156109fd576109fc6109a6565b5b80604052505050565b6000610a106106a1565b9050610a1c82826109d5565b919050565b600067ffffffffffffffff821115610a3c57610a3b6109a6565b5b610a4582610767565b9050602081019050919050565b82818337600083830152505050565b6000610a74610a6f84610a21565b610a06565b905082815260208101848484011115610a9057610a8f6109a1565b5b610a9b848285610a52565b509392505050565b600082601f830112610ab857610ab761099c565b5b8135610ac8848260208601610a61565b91505092915050565b600060208284031215610ae757610ae66106ab565b5b600082013567ffffffffffffffff811115610b0557610b046106b0565b5b610b1184828501610aa3565b91505092915050565b60008060408385031215610b3157610b306106ab565b5b6000610b3f858286016106d6565b925050602083013567ffffffffffffffff811115610b6057610b5f6106b0565b5b610b6c85828601610aa3565b9150509250929050565b7f4e487b7100000000000000000000000000000000000000000000000000000000600052602260045260246000fd5b60006002820490506001821680610bbd57607f821691505b602082108103610bd057610bcf610b76565b5b50919050565b60008190508160005260206000209050919050565b60006020601f8301049050919050565b600082821b905092915050565b600060088302610c387fffffffffffffffffffffffffffffffffffffffffffffffffffffffffffffffff82610bfb565b610c428683610bfb565b95508019841693508086168417925050509392505050565b6000819050919050565b6000610c7f610c7a610c75846106b5565b610c5a565b6106b5565b9050919050565b6000819050919050565b610c9983610c64565b610cad610ca582610c86565b848454610c08565b825550505050565b600090565b610cc2610cb5565b610ccd818484610c90565b505050565b5b81811015610cf157610ce6600082610cba565b600181019050610cd3565b5050565b601f821115610d3657610d0781610bd6565b610d1084610beb565b81016020851015610d1f578190505b610d33610d2b85610beb565b830182610cd2565b50505b505050565b600082821c905092915050565b6000610d5960001984600802610d3b565b1980831691505092915050565b6000610d728383610d48565b9150826002028217905092915050565b610d8b82610718565b67ffffffffffffffff811115610da457610da36109a6565b5b610dae8254610ba5565b610db9828285610cf5565b600060209050601f831160018114610dec5760008415610dda578287015190505b610de48582610d66565b865550610e4c565b601f198416610dfa86610bd6565b60005b82811015610e2257848901518255600182019150602085019450602081019050610dfd565b86831015610e3f5784890151610e3b601f891682610d48565b8355505b6001600288020188555050505b505050505050565b7f4e487b7100000000000000000000000000000000000000000000000000000000600052603260045260246000fd5b7f4e487b7100000000000000000000000000000000000000000000000000000000600052601160045260246000fd5b6000610ebd826106b5565b9150610ec8836106b5565b925082821015610edb57610eda610e83565b5b828203905092915050565b600081549050610ef581610ba5565b9050919050565b818103610f0a575050610fe2565b610f1382610ee6565b67ffffffffffffffff811115610f2c57610f2b6109a6565b5b610f368254610ba5565b610f41828285610cf5565b6000601f831160018114610f705760008415610f5e578287015490505b610f688582610d66565b865550610fdb565b601f198416610f7e87610bd6565b9650610f8986610bd6565b60005b82811015610fb157848901548255600182019150600185019450602081019050610f8c565b86831015610fce5784890154610fca601f891682610d48565b8355505b6001600288020188555050505b5050505050505b565b7f4e487b7100000000000000000000000000000000000000000000000000000000600052603160045260246000fdfea264697066735822122001cbb9ee7d97a9e2569862c59a997a5709b615fe0e72d59dcee662628ea6aa6364736f6c634300080f0033","opcodes":"PUSH1 0x80 PUSH1 0x40 MSTORE CALLVALUE DUP1 ISZERO PUSH2 0x10 JUMPI PUSH1 0x0 DUP1 REVERT JUMPDEST POP PUSH2 0x1049 DUP1 PUSH2 0x20 PUSH1 0x0 CODECOPY PUSH1 0x0 RETURN INVALID PUSH1 0x80 PUSH1 0x40 MSTORE CALLVALUE DUP1 ISZERO PUSH2 0x10 JUMPI PUSH1 0x0 DUP1 REVERT JUMPDEST POP PUSH1 0x4 CALLDATASIZE LT PUSH2 0x57 JUMPI PUSH1 0x0 CALLDATALOAD PUSH1 0xE0 SHR DUP1 PUSH4 0xD80FEFD EQ PUSH2 0x5C JUMPI DUP1 PUSH4 0x5FF6CBF3 EQ PUSH2 0x8D JUMPI DUP1 PUSH4 0x6A226A49 EQ PUSH2 0xAB JUMPI DUP1 PUSH4 0x87F9B00A EQ PUSH2 0xC7 JUMPI DUP1 PUSH4 0xB888690A EQ PUSH2 0xE3 JUMPI JUMPDEST PUSH1 0x0 DUP1 REVERT JUMPDEST PUSH2 0x76 PUSH1 0x4 DUP1 CALLDATASIZE SUB DUP2 ADD SWAP1 PUSH2 0x71 SWAP2 SWAP1 PUSH2 0x6EB JUMP JUMPDEST PUSH2 0xFF JUMP JUMPDEST PUSH1 0x40 MLOAD PUSH2 0x84 SWAP3 SWAP2 SWAP1 PUSH2 0x7F2 JUMP JUMPDEST PUSH1 0x40 MLOAD DUP1 SWAP2 SUB SWAP1 RETURN JUMPDEST PUSH2 0x95 PUSH2 0x1DB JUMP JUMPDEST PUSH1 0x40 MLOAD PUSH2 0xA2 SWAP2 SWAP1 PUSH2 0x97A JUMP JUMPDEST PUSH1 0x40 MLOAD DUP1 SWAP2 SUB SWAP1 RETURN JUMPDEST PUSH2 0xC5 PUSH1 0x4 DUP1 CALLDATASIZE SUB DUP2 ADD SWAP1 PUSH2 0xC0 SWAP2 SWAP1 PUSH2 0xAD1 JUMP JUMPDEST PUSH2 0x322 JUMP JUMPDEST STOP JUMPDEST PUSH2 0xE1 PUSH1 0x4 DUP1 CALLDATASIZE SUB DUP2 ADD SWAP1 PUSH2 0xDC SWAP2 SWAP1 PUSH2 0xB1A JUMP JUMPDEST PUSH2 0x3DA JUMP JUMPDEST STOP JUMPDEST PUSH2 0xFD PUSH1 0x4 DUP1 CALLDATASIZE SUB DUP2 ADD SWAP1 PUSH2 0xF8 SWAP2 SWAP1 PUSH2 0x6EB JUMP JUMPDEST PUSH2 0x48E JUMP JUMPDEST STOP JUMPDEST PUSH1 0x0 DUP2 DUP2 SLOAD DUP2 LT PUSH2 0x10F JUMPI PUSH1 0x0 DUP1 REVERT JUMPDEST SWAP1 PUSH1 0x0 MSTORE PUSH1 0x20 PUSH1 0x0 KECCAK256 SWAP1 PUSH1 0x2 MUL ADD PUSH1 0x0 SWAP2 POP SWAP1 POP DUP1 PUSH1 0x0 ADD DUP1 SLOAD PUSH2 0x132 SWAP1 PUSH2 0xBA5 JUMP JUMPDEST DUP1 PUSH1 0x1F ADD PUSH1 0x20 DUP1 SWAP2 DIV MUL PUSH1 0x20 ADD PUSH1 0x40 MLOAD SWAP1 DUP2 ADD PUSH1 0x40 MSTORE DUP1 SWAP3 SWAP2 SWAP1 DUP2 DUP2 MSTORE PUSH1 0x20 ADD DUP3 DUP1 SLOAD PUSH2 0x15E SWAP1 PUSH2 0xBA5 JUMP JUMPDEST DUP1 ISZERO PUSH2 0x1AB JUMPI DUP1 PUSH1 0x1F LT PUSH2 0x180 JUMPI PUSH2 0x100 DUP1 DUP4 SLOAD DIV MUL DUP4 MSTORE SWAP2 PUSH1 0x20 ADD SWAP2 PUSH2 0x1AB JUMP JUMPDEST DUP3 ADD SWAP2 SWAP1 PUSH1 0x0 MSTORE PUSH1 0x20 PUSH1 0x0 KECCAK256 SWAP1 JUMPDEST DUP2 SLOAD DUP2 MSTORE SWAP1 PUSH1 0x1 ADD SWAP1 PUSH1 0x20 ADD DUP1 DUP4 GT PUSH2 0x18E JUMPI DUP3 SWAP1 SUB PUSH1 0x1F AND DUP3 ADD SWAP2 JUMPDEST POP POP POP POP POP SWAP1 DUP1 PUSH1 0x1 ADD PUSH1 0x0 SWAP1 SLOAD SWAP1 PUSH2 0x100 EXP SWAP1 DIV PUSH20 0xFFFFFFFFFFFFFFFFFFFFFFFFFFFFFFFFFFFFFFFF AND SWAP1 POP DUP3 JUMP JUMPDEST PUSH1 0x60 PUSH1 0x0 DUP1 SLOAD DUP1 PUSH1 0x20 MUL PUSH1 0x20 ADD PUSH1 0x40 MLOAD SWAP1 DUP2 ADD PUSH1 0x40 MSTORE DUP1 SWAP3 SWAP2 SWAP1 DUP2 DUP2 MSTORE PUSH1 0x20 ADD PUSH1 0x0 SWAP1 JUMPDEST DUP3 DUP3 LT ISZERO PUSH2 0x319 JUMPI DUP4 DUP3 SWAP1 PUSH1 0x0 MSTORE PUSH1 0x20 PUSH1 0x0 KECCAK256 SWAP1 PUSH1 0x2 MUL ADD PUSH1 0x40 MLOAD DUP1 PUSH1 0x40 ADD PUSH1 0x40 MSTORE SWAP1 DUP2 PUSH1 0x0 DUP3 ADD DUP1 SLOAD PUSH2 0x232 SWAP1 PUSH2 0xBA5 JUMP JUMPDEST DUP1 PUSH1 0x1F ADD PUSH1 0x20 DUP1 SWAP2 DIV MUL PUSH1 0x20 ADD PUSH1 0x40 MLOAD SWAP1 DUP2 ADD PUSH1 0x40 MSTORE DUP1 SWAP3 SWAP2 SWAP1 DUP2 DUP2 MSTORE PUSH1 0x20 ADD DUP3 DUP1 SLOAD PUSH2 0x25E SWAP1 PUSH2 0xBA5 JUMP JUMPDEST DUP1 ISZERO PUSH2 0x2AB JUMPI DUP1 PUSH1 0x1F LT PUSH2 0x280 JUMPI PUSH2 0x100 DUP1 DUP4 SLOAD DIV MUL DUP4 MSTORE SWAP2 PUSH1 0x20 ADD SWAP2 PUSH2 0x2AB JUMP JUMPDEST DUP3 ADD SWAP2 SWAP1 PUSH1 0x0 MSTORE PUSH1 0x20 PUSH1 0x0 KECCAK256 SWAP1 JUMPDEST DUP2 SLOAD DUP2 MSTORE SWAP1 PUSH1 0x1 ADD SWAP1 PUSH1 0x20 ADD DUP1 DUP4 GT PUSH2 0x28E JUMPI DUP3 SWAP1 SUB PUSH1 0x1F AND DUP3 ADD SWAP2 JUMPDEST POP POP POP POP POP DUP2 MSTORE PUSH1 0x20 ADD PUSH1 0x1 DUP3 ADD PUSH1 0x0 SWAP1 SLOAD SWAP1 PUSH2 0x100 EXP SWAP1 DIV PUSH20 0xFFFFFFFFFFFFFFFFFFFFFFFFFFFFFFFFFFFFFFFF AND PUSH20 0xFFFFFFFFFFFFFFFFFFFFFFFFFFFFFFFFFFFFFFFF AND PUSH20 0xFFFFFFFFFFFFFFFFFFFFFFFFFFFFFFFFFFFFFFFF AND DUP2 MSTORE POP POP DUP2 MSTORE PUSH1 0x20 ADD SWAP1 PUSH1 0x1 ADD SWAP1 PUSH2 0x1FF JUMP JUMPDEST POP POP POP POP SWAP1 POP SWAP1 JUMP JUMPDEST PUSH1 0x0 PUSH1 0x40 MLOAD DUP1 PUSH1 0x40 ADD PUSH1 0x40 MSTORE DUP1 DUP4 DUP2 MSTORE PUSH1 0x20 ADD CALLER PUSH20 0xFFFFFFFFFFFFFFFFFFFFFFFFFFFFFFFFFFFFFFFF AND DUP2 MSTORE POP SWAP1 DUP1 PUSH1 0x1 DUP2 SLOAD ADD DUP1 DUP3 SSTORE DUP1 SWAP2 POP POP PUSH1 0x1 SWAP1 SUB SWAP1 PUSH1 0x0 MSTORE PUSH1 0x20 PUSH1 0x0 KECCAK256 SWAP1 PUSH1 0x2 MUL ADD PUSH1 0x0 SWAP1 SWAP2 SWAP1 SWAP2 SWAP1 SWAP2 POP PUSH1 0x0 DUP3 ADD MLOAD DUP2 PUSH1 0x0 ADD SWAP1 DUP2 PUSH2 0x38D SWAP2 SWAP1 PUSH2 0xD82 JUMP JUMPDEST POP PUSH1 0x20 DUP3 ADD MLOAD DUP2 PUSH1 0x1 ADD PUSH1 0x0 PUSH2 0x100 EXP DUP2 SLOAD DUP2 PUSH20 0xFFFFFFFFFFFFFFFFFFFFFFFFFFFFFFFFFFFFFFFF MUL NOT AND SWAP1 DUP4 PUSH20 0xFFFFFFFFFFFFFFFFFFFFFFFFFFFFFFFFFFFFFFFF AND MUL OR SWAP1 SSTORE POP POP POP POP JUMP JUMPDEST CALLER PUSH20 0xFFFFFFFFFFFFFFFFFFFFFFFFFFFFFFFFFFFFFFFF AND PUSH1 0x0 DUP4 DUP2 SLOAD DUP2 LT PUSH2 0x405 JUMPI PUSH2 0x404 PUSH2 0xE54 JUMP JUMPDEST JUMPDEST SWAP1 PUSH1 0x0 MSTORE PUSH1 0x20 PUSH1 0x0 KECCAK256 SWAP1 PUSH1 0x2 MUL ADD PUSH1 0x1 ADD PUSH1 0x0 SWAP1 SLOAD SWAP1 PUSH2 0x100 EXP SWAP1 DIV PUSH20 0xFFFFFFFFFFFFFFFFFFFFFFFFFFFFFFFFFFFFFFFF AND PUSH20 0xFFFFFFFFFFFFFFFFFFFFFFFFFFFFFFFFFFFFFFFF AND EQ PUSH2 0x457 JUMPI PUSH1 0x0 DUP1 REVERT JUMPDEST DUP1 PUSH1 0x0 DUP4 DUP2 SLOAD DUP2 LT PUSH2 0x46C JUMPI PUSH2 0x46B PUSH2 0xE54 JUMP JUMPDEST JUMPDEST SWAP1 PUSH1 0x0 MSTORE PUSH1 0x20 PUSH1 0x0 KECCAK256 SWAP1 PUSH1 0x2 MUL ADD PUSH1 0x0 ADD SWAP1 DUP2 PUSH2 0x489 SWAP2 SWAP1 PUSH2 0xD82 JUMP JUMPDEST POP POP POP JUMP JUMPDEST CALLER PUSH20 0xFFFFFFFFFFFFFFFFFFFFFFFFFFFFFFFFFFFFFFFF AND PUSH1 0x0 DUP3 DUP2 SLOAD DUP2 LT PUSH2 0x4B9 JUMPI PUSH2 0x4B8 PUSH2 0xE54 JUMP JUMPDEST JUMPDEST SWAP1 PUSH1 0x0 MSTORE PUSH1 0x20 PUSH1 0x0 KECCAK256 SWAP1 PUSH1 0x2 MUL ADD PUSH1 0x1 ADD PUSH1 0x0 SWAP1 SLOAD SWAP1 PUSH2 0x100 EXP SWAP1 DIV PUSH20 0xFFFFFFFFFFFFFFFFFFFFFFFFFFFFFFFFFFFFFFFF AND PUSH20 0xFFFFFFFFFFFFFFFFFFFFFFFFFFFFFFFFFFFFFFFF AND EQ PUSH2 0x50B JUMPI PUSH1 0x0 DUP1 REVERT JUMPDEST PUSH1 0x0 PUSH1 0x1 PUSH1 0x0 DUP1 SLOAD SWAP1 POP PUSH2 0x51F SWAP2 SWAP1 PUSH2 0xEB2 JUMP JUMPDEST DUP2 SLOAD DUP2 LT PUSH2 0x530 JUMPI PUSH2 0x52F PUSH2 0xE54 JUMP JUMPDEST JUMPDEST SWAP1 PUSH1 0x0 MSTORE PUSH1 0x20 PUSH1 0x0 KECCAK256 SWAP1 PUSH1 0x2 MUL ADD PUSH1 0x0 DUP3 DUP2 SLOAD DUP2 LT PUSH2 0x552 JUMPI PUSH2 0x551 PUSH2 0xE54 JUMP JUMPDEST JUMPDEST SWAP1 PUSH1 0x0 MSTORE PUSH1 0x20 PUSH1 0x0 KECCAK256 SWAP1 PUSH1 0x2 MUL ADD PUSH1 0x0 DUP3 ADD DUP2 PUSH1 0x0 ADD SWAP1 DUP2 PUSH2 0x574 SWAP2 SWAP1 PUSH2 0xEFC JUMP JUMPDEST POP PUSH1 0x1 DUP3 ADD PUSH1 0x0 SWAP1 SLOAD SWAP1 PUSH2 0x100 EXP SWAP1 DIV PUSH20 0xFFFFFFFFFFFFFFFFFFFFFFFFFFFFFFFFFFFFFFFF AND DUP2 PUSH1 0x1 ADD PUSH1 0x0 PUSH2 0x100 EXP DUP2 SLOAD DUP2 PUSH20 0xFFFFFFFFFFFFFFFFFFFFFFFFFFFFFFFFFFFFFFFF MUL NOT AND SWAP1 DUP4 PUSH20 0xFFFFFFFFFFFFFFFFFFFFFFFFFFFFFFFFFFFFFFFF AND MUL OR SWAP1 SSTORE POP SWAP1 POP POP PUSH1 0x0 DUP1 SLOAD DUP1 PUSH2 0x5F1 JUMPI PUSH2 0x5F0 PUSH2 0xFE4 JUMP JUMPDEST JUMPDEST PUSH1 0x1 SWAP1 SUB DUP2 DUP2 SWAP1 PUSH1 0x0 MSTORE PUSH1 0x20 PUSH1 0x0 KECCAK256 SWAP1 PUSH1 0x2 MUL ADD PUSH1 0x0 DUP1 DUP3 ADD PUSH1 0x0 PUSH2 0x616 SWAP2 SWAP1 PUSH2 0x644 JUMP JUMPDEST PUSH1 0x1 DUP3 ADD PUSH1 0x0 PUSH2 0x100 EXP DUP2 SLOAD SWAP1 PUSH20 0xFFFFFFFFFFFFFFFFFFFFFFFFFFFFFFFFFFFFFFFF MUL NOT AND SWAP1 SSTORE POP POP SWAP1 SSTORE POP JUMP JUMPDEST POP DUP1 SLOAD PUSH2 0x650 SWAP1 PUSH2 0xBA5 JUMP JUMPDEST PUSH1 0x0 DUP3 SSTORE DUP1 PUSH1 0x1F LT PUSH2 0x662 JUMPI POP PUSH2 0x681 JUMP JUMPDEST PUSH1 0x1F ADD PUSH1 0x20 SWAP1 DIV SWAP1 PUSH1 0x0 MSTORE PUSH1 0x20 PUSH1 0x0 KECCAK256 SWAP1 DUP2 ADD SWAP1 PUSH2 0x680 SWAP2 SWAP1 PUSH2 0x684 JUMP JUMPDEST JUMPDEST POP JUMP JUMPDEST JUMPDEST DUP1 DUP3 GT ISZERO PUSH2 0x69D JUMPI PUSH1 0x0 DUP2 PUSH1 0x0 SWAP1 SSTORE POP PUSH1 0x1 ADD PUSH2 0x685 JUMP JUMPDEST POP SWAP1 JUMP JUMPDEST PUSH1 0x0 PUSH1 0x40 MLOAD SWAP1 POP SWAP1 JUMP JUMPDEST PUSH1 0x0 DUP1 REVERT JUMPDEST PUSH1 0x0 DUP1 REVERT JUMPDEST PUSH1 0x0 DUP2 SWAP1 POP SWAP2 SWAP1 POP JUMP JUMPDEST PUSH2 0x6C8 DUP2 PUSH2 0x6B5 JUMP JUMPDEST DUP2 EQ PUSH2 0x6D3 JUMPI PUSH1 0x0 DUP1 REVERT JUMPDEST POP JUMP JUMPDEST PUSH1 0x0 DUP2 CALLDATALOAD SWAP1 POP PUSH2 0x6E5 DUP2 PUSH2 0x6BF JUMP JUMPDEST SWAP3 SWAP2 POP POP JUMP JUMPDEST PUSH1 0x0 PUSH1 0x20 DUP3 DUP5 SUB SLT ISZERO PUSH2 0x701 JUMPI PUSH2 0x700 PUSH2 0x6AB JUMP JUMPDEST JUMPDEST PUSH1 0x0 PUSH2 0x70F DUP5 DUP3 DUP6 ADD PUSH2 0x6D6 JUMP JUMPDEST SWAP2 POP POP SWAP3 SWAP2 POP POP JUMP JUMPDEST PUSH1 0x0 DUP2 MLOAD SWAP1 POP SWAP2 SWAP1 POP JUMP JUMPDEST PUSH1 0x0 DUP3 DUP3 MSTORE PUSH1 0x20 DUP3 ADD SWAP1 POP SWAP3 SWAP2 POP POP JUMP JUMPDEST PUSH1 0x0 JUMPDEST DUP4 DUP2 LT ISZERO PUSH2 0x752 JUMPI DUP1 DUP3 ADD MLOAD DUP2 DUP5 ADD MSTORE PUSH1 0x20 DUP2 ADD SWAP1 POP PUSH2 0x737 JUMP JUMPDEST DUP4 DUP2 GT ISZERO PUSH2 0x761 JUMPI PUSH1 0x0 DUP5 DUP5 ADD MSTORE JUMPDEST POP POP POP POP JUMP JUMPDEST PUSH1 0x0 PUSH1 0x1F NOT PUSH1 0x1F DUP4 ADD AND SWAP1 POP SWAP2 SWAP1 POP JUMP JUMPDEST PUSH1 0x0 PUSH2 0x783 DUP3 PUSH2 0x718 JUMP JUMPDEST PUSH2 0x78D DUP2 DUP6 PUSH2 0x723 JUMP JUMPDEST SWAP4 POP PUSH2 0x79D DUP2 DUP6 PUSH1 0x20 DUP7 ADD PUSH2 0x734 JUMP JUMPDEST PUSH2 0x7A6 DUP2 PUSH2 0x767 JUMP JUMPDEST DUP5 ADD SWAP2 POP POP SWAP3 SWAP2 POP POP JUMP JUMPDEST PUSH1 0x0 PUSH20 0xFFFFFFFFFFFFFFFFFFFFFFFFFFFFFFFFFFFFFFFF DUP3 AND SWAP1 POP SWAP2 SWAP1 POP JUMP JUMPDEST PUSH1 0x0 PUSH2 0x7DC DUP3 PUSH2 0x7B1 JUMP JUMPDEST SWAP1 POP SWAP2 SWAP1 POP JUMP JUMPDEST PUSH2 0x7EC DUP2 PUSH2 0x7D1 JUMP JUMPDEST DUP3 MSTORE POP POP JUMP JUMPDEST PUSH1 0x0 PUSH1 0x40 DUP3 ADD SWAP1 POP DUP2 DUP2 SUB PUSH1 0x0 DUP4 ADD MSTORE PUSH2 0x80C DUP2 DUP6 PUSH2 0x778 JUMP JUMPDEST SWAP1 POP PUSH2 0x81B PUSH1 0x20 DUP4 ADD DUP5 PUSH2 0x7E3 JUMP JUMPDEST SWAP4 SWAP3 POP POP POP JUMP JUMPDEST PUSH1 0x0 DUP2 MLOAD SWAP1 POP SWAP2 SWAP1 POP JUMP JUMPDEST PUSH1 0x0 DUP3 DUP3 MSTORE PUSH1 0x20 DUP3 ADD SWAP1 POP SWAP3 SWAP2 POP POP JUMP JUMPDEST PUSH1 0x0 DUP2 SWAP1 POP PUSH1 0x20 DUP3 ADD SWAP1 POP SWAP2 SWAP1 POP JUMP JUMPDEST PUSH1 0x0 DUP3 DUP3 MSTORE PUSH1 0x20 DUP3 ADD SWAP1 POP SWAP3 SWAP2 POP POP JUMP JUMPDEST PUSH1 0x0 PUSH2 0x86A DUP3 PUSH2 0x718 JUMP JUMPDEST PUSH2 0x874 DUP2 DUP6 PUSH2 0x84E JUMP JUMPDEST SWAP4 POP PUSH2 0x884 DUP2 DUP6 PUSH1 0x20 DUP7 ADD PUSH2 0x734 JUMP JUMPDEST PUSH2 0x88D DUP2 PUSH2 0x767 JUMP JUMPDEST DUP5 ADD SWAP2 POP POP SWAP3 SWAP2 POP POP JUMP JUMPDEST PUSH2 0x8A1 DUP2 PUSH2 0x7D1 JUMP JUMPDEST DUP3 MSTORE POP POP JUMP JUMPDEST PUSH1 0x0 PUSH1 0x40 DUP4 ADD PUSH1 0x0 DUP4 ADD MLOAD DUP5 DUP3 SUB PUSH1 0x0 DUP7 ADD MSTORE PUSH2 0x8C4 DUP3 DUP3 PUSH2 0x85F JUMP JUMPDEST SWAP2 POP POP PUSH1 0x20 DUP4 ADD MLOAD PUSH2 0x8D9 PUSH1 0x20 DUP7 ADD DUP3 PUSH2 0x898 JUMP JUMPDEST POP DUP1 SWAP2 POP POP SWAP3 SWAP2 POP POP JUMP JUMPDEST PUSH1 0x0 PUSH2 0x8F0 DUP4 DUP4 PUSH2 0x8A7 JUMP JUMPDEST SWAP1 POP SWAP3 SWAP2 POP POP JUMP JUMPDEST PUSH1 0x0 PUSH1 0x20 DUP3 ADD SWAP1 POP SWAP2 SWAP1 POP JUMP JUMPDEST PUSH1 0x0 PUSH2 0x910 DUP3 PUSH2 0x822 JUMP JUMPDEST PUSH2 0x91A DUP2 DUP6 PUSH2 0x82D JUMP JUMPDEST SWAP4 POP DUP4 PUSH1 0x20 DUP3 MUL DUP6 ADD PUSH2 0x92C DUP6 PUSH2 0x83E JUMP JUMPDEST DUP1 PUSH1 0x0 JUMPDEST DUP6 DUP2 LT ISZERO PUSH2 0x968 JUMPI DUP5 DUP5 SUB DUP10 MSTORE DUP2 MLOAD PUSH2 0x949 DUP6 DUP3 PUSH2 0x8E4 JUMP JUMPDEST SWAP5 POP PUSH2 0x954 DUP4 PUSH2 0x8F8 JUMP JUMPDEST SWAP3 POP PUSH1 0x20 DUP11 ADD SWAP10 POP POP PUSH1 0x1 DUP2 ADD SWAP1 POP PUSH2 0x930 JUMP JUMPDEST POP DUP3 SWAP8 POP DUP8 SWAP6 POP POP POP POP POP POP SWAP3 SWAP2 POP POP JUMP JUMPDEST PUSH1 0x0 PUSH1 0x20 DUP3 ADD SWAP1 POP DUP2 DUP2 SUB PUSH1 0x0 DUP4 ADD MSTORE PUSH2 0x994 DUP2 DUP5 PUSH2 0x905 JUMP JUMPDEST SWAP1 POP SWAP3 SWAP2 POP POP JUMP JUMPDEST PUSH1 0x0 DUP1 REVERT JUMPDEST PUSH1 0x0 DUP1 REVERT JUMPDEST PUSH32 0x4E487B7100000000000000000000000000000000000000000000000000000000 PUSH1 0x0 MSTORE PUSH1 0x41 PUSH1 0x4 MSTORE PUSH1 0x24 PUSH1 0x0 REVERT JUMPDEST PUSH2 0x9DE DUP3 PUSH2 0x767 JUMP JUMPDEST DUP2 ADD DUP2 DUP2 LT PUSH8 0xFFFFFFFFFFFFFFFF DUP3 GT OR ISZERO PUSH2 0x9FD JUMPI PUSH2 0x9FC PUSH2 0x9A6 JUMP JUMPDEST JUMPDEST DUP1 PUSH1 0x40 MSTORE POP POP POP JUMP JUMPDEST PUSH1 0x0 PUSH2 0xA10 PUSH2 0x6A1 JUMP JUMPDEST SWAP1 POP PUSH2 0xA1C DUP3 DUP3 PUSH2 0x9D5 JUMP JUMPDEST SWAP2 SWAP1 POP JUMP JUMPDEST PUSH1 0x0 PUSH8 0xFFFFFFFFFFFFFFFF DUP3 GT ISZERO PUSH2 0xA3C JUMPI PUSH2 0xA3B PUSH2 0x9A6 JUMP JUMPDEST JUMPDEST PUSH2 0xA45 DUP3 PUSH2 0x767 JUMP JUMPDEST SWAP1 POP PUSH1 0x20 DUP2 ADD SWAP1 POP SWAP2 SWAP1 POP JUMP JUMPDEST DUP3 DUP2 DUP4 CALLDATACOPY PUSH1 0x0 DUP4 DUP4 ADD MSTORE POP POP POP JUMP JUMPDEST PUSH1 0x0 PUSH2 0xA74 PUSH2 0xA6F DUP5 PUSH2 0xA21 JUMP JUMPDEST PUSH2 0xA06 JUMP JUMPDEST SWAP1 POP DUP3 DUP2 MSTORE PUSH1 0x20 DUP2 ADD DUP5 DUP5 DUP5 ADD GT ISZERO PUSH2 0xA90 JUMPI PUSH2 0xA8F PUSH2 0x9A1 JUMP JUMPDEST JUMPDEST PUSH2 0xA9B DUP5 DUP3 DUP6 PUSH2 0xA52 JUMP JUMPDEST POP SWAP4 SWAP3 POP POP POP JUMP JUMPDEST PUSH1 0x0 DUP3 PUSH1 0x1F DUP4 ADD SLT PUSH2 0xAB8 JUMPI PUSH2 0xAB7 PUSH2 0x99C JUMP JUMPDEST JUMPDEST DUP2 CALLDATALOAD PUSH2 0xAC8 DUP5 DUP3 PUSH1 0x20 DUP7 ADD PUSH2 0xA61 JUMP JUMPDEST SWAP2 POP POP SWAP3 SWAP2 POP POP JUMP JUMPDEST PUSH1 0x0 PUSH1 0x20 DUP3 DUP5 SUB SLT ISZERO PUSH2 0xAE7 JUMPI PUSH2 0xAE6 PUSH2 0x6AB JUMP JUMPDEST JUMPDEST PUSH1 0x0 DUP3 ADD CALLDATALOAD PUSH8 0xFFFFFFFFFFFFFFFF DUP2 GT ISZERO PUSH2 0xB05 JUMPI PUSH2 0xB04 PUSH2 0x6B0 JUMP JUMPDEST JUMPDEST PUSH2 0xB11 DUP5 DUP3 DUP6 ADD PUSH2 0xAA3 JUMP JUMPDEST SWAP2 POP POP SWAP3 SWAP2 POP POP JUMP JUMPDEST PUSH1 0x0 DUP1 PUSH1 0x40 DUP4 DUP6 SUB SLT ISZERO PUSH2 0xB31 JUMPI PUSH2 0xB30 PUSH2 0x6AB JUMP JUMPDEST JUMPDEST PUSH1 0x0 PUSH2 0xB3F DUP6 DUP3 DUP7 ADD PUSH2 0x6D6 JUMP JUMPDEST SWAP3 POP POP PUSH1 0x20 DUP4 ADD CALLDATALOAD PUSH8 0xFFFFFFFFFFFFFFFF DUP2 GT ISZERO PUSH2 0xB60 JUMPI PUSH2 0xB5F PUSH2 0x6B0 JUMP JUMPDEST JUMPDEST PUSH2 0xB6C DUP6 DUP3 DUP7 ADD PUSH2 0xAA3 JUMP JUMPDEST SWAP2 POP POP SWAP3 POP SWAP3 SWAP1 POP JUMP JUMPDEST PUSH32 0x4E487B7100000000000000000000000000000000000000000000000000000000 PUSH1 0x0 MSTORE PUSH1 0x22 PUSH1 0x4 MSTORE PUSH1 0x24 PUSH1 0x0 REVERT JUMPDEST PUSH1 0x0 PUSH1 0x2 DUP3 DIV SWAP1 POP PUSH1 0x1 DUP3 AND DUP1 PUSH2 0xBBD JUMPI PUSH1 0x7F DUP3 AND SWAP2 POP JUMPDEST PUSH1 0x20 DUP3 LT DUP2 SUB PUSH2 0xBD0 JUMPI PUSH2 0xBCF PUSH2 0xB76 JUMP JUMPDEST JUMPDEST POP SWAP2 SWAP1 POP JUMP JUMPDEST PUSH1 0x0 DUP2 SWAP1 POP DUP2 PUSH1 0x0 MSTORE PUSH1 0x20 PUSH1 0x0 KECCAK256 SWAP1 POP SWAP2 SWAP1 POP JUMP JUMPDEST PUSH1 0x0 PUSH1 0x20 PUSH1 0x1F DUP4 ADD DIV SWAP1 POP SWAP2 SWAP1 POP JUMP JUMPDEST PUSH1 0x0 DUP3 DUP3 SHL SWAP1 POP SWAP3 SWAP2 POP POP JUMP JUMPDEST PUSH1 0x0 PUSH1 0x8 DUP4 MUL PUSH2 0xC38 PUSH32 0xFFFFFFFFFFFFFFFFFFFFFFFFFFFFFFFFFFFFFFFFFFFFFFFFFFFFFFFFFFFFFFFF DUP3 PUSH2 0xBFB JUMP JUMPDEST PUSH2 0xC42 DUP7 DUP4 PUSH2 0xBFB JUMP JUMPDEST SWAP6 POP DUP1 NOT DUP5 AND SWAP4 POP DUP1 DUP7 AND DUP5 OR SWAP3 POP POP POP SWAP4 SWAP3 POP POP POP JUMP JUMPDEST PUSH1 0x0 DUP2 SWAP1 POP SWAP2 SWAP1 POP JUMP JUMPDEST PUSH1 0x0 PUSH2 0xC7F PUSH2 0xC7A PUSH2 0xC75 DUP5 PUSH2 0x6B5 JUMP JUMPDEST PUSH2 0xC5A JUMP JUMPDEST PUSH2 0x6B5 JUMP JUMPDEST SWAP1 POP SWAP2 SWAP1 POP JUMP JUMPDEST PUSH1 0x0 DUP2 SWAP1 POP SWAP2 SWAP1 POP JUMP JUMPDEST PUSH2 0xC99 DUP4 PUSH2 0xC64 JUMP JUMPDEST PUSH2 0xCAD PUSH2 0xCA5 DUP3 PUSH2 0xC86 JUMP JUMPDEST DUP5 DUP5 SLOAD PUSH2 0xC08 JUMP JUMPDEST DUP3 SSTORE POP POP POP POP JUMP JUMPDEST PUSH1 0x0 SWAP1 JUMP JUMPDEST PUSH2 0xCC2 PUSH2 0xCB5 JUMP JUMPDEST PUSH2 0xCCD DUP2 DUP5 DUP5 PUSH2 0xC90 JUMP JUMPDEST POP POP POP JUMP JUMPDEST JUMPDEST DUP2 DUP2 LT ISZERO PUSH2 0xCF1 JUMPI PUSH2 0xCE6 PUSH1 0x0 DUP3 PUSH2 0xCBA JUMP JUMPDEST PUSH1 0x1 DUP2 ADD SWAP1 POP PUSH2 0xCD3 JUMP JUMPDEST POP POP JUMP JUMPDEST PUSH1 0x1F DUP3 GT ISZERO PUSH2 0xD36 JUMPI PUSH2 0xD07 DUP2 PUSH2 0xBD6 JUMP JUMPDEST PUSH2 0xD10 DUP5 PUSH2 0xBEB JUMP JUMPDEST DUP2 ADD PUSH1 0x20 DUP6 LT ISZERO PUSH2 0xD1F JUMPI DUP2 SWAP1 POP JUMPDEST PUSH2 0xD33 PUSH2 0xD2B DUP6 PUSH2 0xBEB JUMP JUMPDEST DUP4 ADD DUP3 PUSH2 0xCD2 JUMP JUMPDEST POP POP JUMPDEST POP POP POP JUMP JUMPDEST PUSH1 0x0 DUP3 DUP3 SHR SWAP1 POP SWAP3 SWAP2 POP POP JUMP JUMPDEST PUSH1 0x0 PUSH2 0xD59 PUSH1 0x0 NOT DUP5 PUSH1 0x8 MUL PUSH2 0xD3B JUMP JUMPDEST NOT DUP1 DUP4 AND SWAP2 POP POP SWAP3 SWAP2 POP POP JUMP JUMPDEST PUSH1 0x0 PUSH2 0xD72 DUP4 DUP4 PUSH2 0xD48 JUMP JUMPDEST SWAP2 POP DUP3 PUSH1 0x2 MUL DUP3 OR SWAP1 POP SWAP3 SWAP2 POP POP JUMP JUMPDEST PUSH2 0xD8B DUP3 PUSH2 0x718 JUMP JUMPDEST PUSH8 0xFFFFFFFFFFFFFFFF DUP2 GT ISZERO PUSH2 0xDA4 JUMPI PUSH2 0xDA3 PUSH2 0x9A6 JUMP JUMPDEST JUMPDEST PUSH2 0xDAE DUP3 SLOAD PUSH2 0xBA5 JUMP JUMPDEST PUSH2 0xDB9 DUP3 DUP3 DUP6 PUSH2 0xCF5 JUMP JUMPDEST PUSH1 0x0 PUSH1 0x20 SWAP1 POP PUSH1 0x1F DUP4 GT PUSH1 0x1 DUP2 EQ PUSH2 0xDEC JUMPI PUSH1 0x0 DUP5 ISZERO PUSH2 0xDDA JUMPI DUP3 DUP8 ADD MLOAD SWAP1 POP JUMPDEST PUSH2 0xDE4 DUP6 DUP3 PUSH2 0xD66 JUMP JUMPDEST DUP7 SSTORE POP PUSH2 0xE4C JUMP JUMPDEST PUSH1 0x1F NOT DUP5 AND PUSH2 0xDFA DUP7 PUSH2 0xBD6 JUMP JUMPDEST PUSH1 0x0 JUMPDEST DUP3 DUP2 LT ISZERO PUSH2 0xE22 JUMPI DUP5 DUP10 ADD MLOAD DUP3 SSTORE PUSH1 0x1 DUP3 ADD SWAP2 POP PUSH1 0x20 DUP6 ADD SWAP5 POP PUSH1 0x20 DUP2 ADD SWAP1 POP PUSH2 0xDFD JUMP JUMPDEST DUP7 DUP4 LT ISZERO PUSH2 0xE3F JUMPI DUP5 DUP10 ADD MLOAD PUSH2 0xE3B PUSH1 0x1F DUP10 AND DUP3 PUSH2 0xD48 JUMP JUMPDEST DUP4 SSTORE POP JUMPDEST PUSH1 0x1 PUSH1 0x2 DUP9 MUL ADD DUP9 SSTORE POP POP POP JUMPDEST POP POP POP POP POP POP JUMP JUMPDEST PUSH32 0x4E487B7100000000000000000000000000000000000000000000000000000000 PUSH1 0x0 MSTORE PUSH1 0x32 PUSH1 0x4 MSTORE PUSH1 0x24 PUSH1 0x0 REVERT JUMPDEST PUSH32 0x4E487B7100000000000000000000000000000000000000000000000000000000 PUSH1 0x0 MSTORE PUSH1 0x11 PUSH1 0x4 MSTORE PUSH1 0x24 PUSH1 0x0 REVERT JUMPDEST PUSH1 0x0 PUSH2 0xEBD DUP3 PUSH2 0x6B5 JUMP JUMPDEST SWAP2 POP PUSH2 0xEC8 DUP4 PUSH2 0x6B5 JUMP JUMPDEST SWAP3 POP DUP3 DUP3 LT ISZERO PUSH2 0xEDB JUMPI PUSH2 0xEDA PUSH2 0xE83 JUMP JUMPDEST JUMPDEST DUP3 DUP3 SUB SWAP1 POP SWAP3 SWAP2 POP POP JUMP JUMPDEST PUSH1 0x0 DUP2 SLOAD SWAP1 POP PUSH2 0xEF5 DUP2 PUSH2 0xBA5 JUMP JUMPDEST SWAP1 POP SWAP2 SWAP1 POP JUMP JUMPDEST DUP2 DUP2 SUB PUSH2 0xF0A JUMPI POP POP PUSH2 0xFE2 JUMP JUMPDEST PUSH2 0xF13 DUP3 PUSH2 0xEE6 JUMP JUMPDEST PUSH8 0xFFFFFFFFFFFFFFFF DUP2 GT ISZERO PUSH2 0xF2C JUMPI PUSH2 0xF2B PUSH2 0x9A6 JUMP JUMPDEST JUMPDEST PUSH2 0xF36 DUP3 SLOAD PUSH2 0xBA5 JUMP JUMPDEST PUSH2 0xF41 DUP3 DUP3 DUP6 PUSH2 0xCF5 JUMP JUMPDEST PUSH1 0x0 PUSH1 0x1F DUP4 GT PUSH1 0x1 DUP2 EQ PUSH2 0xF70 JUMPI PUSH1 0x0 DUP5 ISZERO PUSH2 0xF5E JUMPI DUP3 DUP8 ADD SLOAD SWAP1 POP JUMPDEST PUSH2 0xF68 DUP6 DUP3 PUSH2 0xD66 JUMP JUMPDEST DUP7 SSTORE POP PUSH2 0xFDB JUMP JUMPDEST PUSH1 0x1F NOT DUP5 AND PUSH2 0xF7E DUP8 PUSH2 0xBD6 JUMP JUMPDEST SWAP7 POP PUSH2 0xF89 DUP7 PUSH2 0xBD6 JUMP JUMPDEST PUSH1 0x0 JUMPDEST DUP3 DUP2 LT ISZERO PUSH2 0xFB1 JUMPI DUP5 DUP10 ADD SLOAD DUP3 SSTORE PUSH1 0x1 DUP3 ADD SWAP2 POP PUSH1 0x1 DUP6 ADD SWAP5 POP PUSH1 0x20 DUP2 ADD SWAP1 POP PUSH2 0xF8C JUMP JUMPDEST DUP7 DUP4 LT ISZERO PUSH2 0xFCE JUMPI DUP5 DUP10 ADD SLOAD PUSH2 0xFCA PUSH1 0x1F DUP10 AND DUP3 PUSH2 0xD48 JUMP JUMPDEST DUP4 SSTORE POP JUMPDEST PUSH1 0x1 PUSH1 0x2 DUP9 MUL ADD DUP9 SSTORE POP POP POP JUMPDEST POP POP POP POP POP POP JUMPDEST JUMP JUMPDEST PUSH32 0x4E487B7100000000000000000000000000000000000000000000000000000000 PUSH1 0x0 MSTORE PUSH1 0x31 PUSH1 0x4 MSTORE PUSH1 0x24 PUSH1 0x0 REVERT INVALID LOG2 PUSH5 0x6970667358 0x22 SLT KECCAK256 ADD 0xCB 0xB9 0xEE PUSH30 0x97A9E2569862C59A997A5709B615FE0E72D59DCEE662628EA6AA6364736F PUSH13 0x634300080F0033000000000000 "},"gasEstimates":{"creation":{"codeDepositCost":"833800","executionCost":"870","totalCost":"834670"},"external":{"addMessage(string)":"infinite","deleteMessage(uint256)":"infinite","editMessage(uint256,string)":"infinite","getMessages()":"infinite","messages(uint256)":"infinite"}},"methodIdentifiers":{"addMessage(string)":"6a226a49","deleteMessage(uint256)":"b888690a","editMessage(uint256,string)":"87f9b00a","getMessages()":"5ff6cbf3","messages(uint256)":"0d80fefd"}},"storageLayout":{"storage":[{"astId":10,"contract":"BulletinBoard.sol:BulletinBoard","label":"messages","offset":0,"slot":"0","type":"t_array(t_struct(Message)6_storage)dyn_storage"}],"types":{"t_address":{"encoding":"inplace","label":"address","numberOfBytes":"20"},"t_array(t_struct(Message)6_storage)dyn_storage":{"base":"t_struct(Message)6_storage","encoding":"dynamic_array","label":"struct BulletinBoard.Message[]","numberOfBytes":"32"},"t_string_storage":{"encoding":"bytes","label":"string","numberOfBytes":"32"},"t_struct(Message)6_storage":{"encoding":"inplace","label":"struct BulletinBoard.Message","members":[{"astId":3,"contract":"BulletinBoard.sol:BulletinBoard","label":"information","offset":0,"slot":"0","type":"t_string_storage"},{"astId":5,"contract":"BulletinBoard.sol:BulletinBoard","label":"author","offset":0,"slot":"1","type":"t_address"}],"numberOfBytes":"64"}}},"userdoc":{"kind":"user","methods":{},"version":1}}